:020000040800F2
:10000000F8040024AD020008532A0008AB280008B9
:10001000512A0008E50300088B38000800000000A2
:10002000000000000000000000000000992C000803
:10003000E703000800000000552A00089B2C000878
:10004000C7020008C7020008C7020008C70200086C
:10005000C7020008C7020008C7020008C70200085C
:10006000C7020008C7020008C7020008C70200084C
:10007000C7020008C7020008C7020008C70200083C
:10008000C7020008C7020008C7020008C70200082C
:10009000C7020008C7020008C7020008C70200081C
:1000A000C7020008192E0008C70200080D2E00081C
:1000B000C7020008C7020008C7020008C7020008FC
:1000C000C7020008C7020008C7020008C7020008EC
:1000D000C7020008C7020008C7020008C7020008DC
:1000E000C7020008C702000800000000C70200089D
:1000F000C7020008C7020008C7020008C7020008BC
:10010000C7020008C7020008C7020008C7020008AB
:10011000C7020008C7020008C7020008C70200089B
:10012000C7020008C7020008C7020008C70200088B
:10013000C7020008C7020008C7020008C70200087B
:1001400000000000000000000000000000000000AF
:10015000C7020008C7020008C7020008C70200085B
:10016000C7020008C7020008C7020008C70200084B
:10017000C7020008C7020008C7020008C70200083B
:10018000C7020008C7020008C7020008C70200082B
:10019000C7020008C7020008C7020008C70200081B
:1001A000C7020008C7020008C7020008C70200080B
:1001B000C7020008C7020008C7020008C7020008FB
:1001C000C7020008C7020008C7020008C7020008EB
:1001D000C7020008C7020008C7020008C7020008DB
:1001E000C7020008C7020008C7020008C7020008CB
:1001F000C7020008C7020008C7020008C7020008BB
:10020000C7020008C7020008C7020008C7020008AA
:10021000C7020008C7020008C7020008C70200089A
:10022000C7020008C7020008C7020008000000005B
:10023000C7020008C702000800000000C70200084B
:10024000C7020008C7020008C7020008C70200086A
:10025000C7020008C7020008C7020008C70200085A
:10026000C7020008C7020008C7020008C70200084A
:10027000C7020008C7020008C7020008000000000B
:10028000C7020008C7020008C702000800000000FB
:1002900000000000C7020008DFF80CD000F090F862
:1002A00000480047BD3A0008F8040024064880478B
:1002B00006480047FEE7FEE7FEE7FEE7FEE7FEE74B
:1002C000FEE7FEE7FEE7FEE7312D00089902000891
:1002D0002DE9F05F0546002092469B46884606467B
:1002E000814640241BE0284641464746224600F00E
:1002F00057F853465A46C01A914110D31146184632
:10030000224600F03EF82D1A67EB01084F462246C0
:100310000120002100F035F817EB00094E41201EA6
:10032000A4F10104DFDC484631462A464346BDE8D5
:10033000F09FD2B201E000F8012B491EFBD27047BA
:100340000022F6E710B513460A4604461946FFF7A1
:10035000F0FF204610BD30B50B460146002020229C
:10036000012409E021FA02F59D4205D303FA02F5C2
:10037000491B04FA02F52844151EA2F10102F1DC22
:1003800030BD202A04DB203A00FA02F10020704739
:100390009140C2F1200320FA03F3194390407047C3
:1003A000202A04DB203A21FA02F00021704721FACA
:1003B00002F3D040C2F12002914008431946704731
:1003C000064C074D06E0E06840F0010394E80700A2
:1003D00098471034AC42F6D3FFF762FF443B000865
:1003E000643B0008FEE7704772B6FEE770B504464E
:1003F00000F030F90546601C02D00448007804443F
:1004000000F028F9401BA042FAD370BD0800002478
:100410002DE9F84F03247D4D00234FF001094FF0E3
:10042000B04B4FF00F0AE9E009FA03F73A4076D0F3
:100430000E7906F00306012E01D0022E18D1D0F855
:1004400008C04FEA430ECE6804FA0EF82CEA080CF6
:1004500006FA0EF646EA0C068660D0F804C00E795D
:100460002CEA070CC6F300169E4046EA0C064660CE
:100470000E79F643B6070BD0C6684FEA43088F687B
:1004800004FA08FC26EA0C0607FA08F73743C760A7
:100490000E7906F00306022E12D1DE080F694FEA2C
:1004A000437C00EB8606B646366A4FEADC6C0AFAF5
:1004B0000CF807FA0CF726EA08063743CEF8207046
:1004C0000F7906684FEA430807F0030704FA08FCAF
:1004D00007FA08F726EA0C06374307604E6816F459
:1004E000403F1CD04A4E376847F0020737603668F5
:1004F0009F0706F00206009623F0030606F1B046B9
:10050000B6463F0FD6F80864DFF808810AFA07FC00
:10051000404526EA0C0603D14FF0000C41E06CE0A8
:10052000DFF8F4C0604502D14FF0010C39E0DFF88C
:10053000ECC0604502D14FF0020C32E0DFF8E0C0C1
:10054000604502D14FF0030C2BE0DFF8D8C06045C6
:1005500002D14FF0040C24E0DFF8CCC0604502D19A
:100560004FF0050C1DE0DFF8C4C0604502D14FF02C
:10057000060C16E0DFF8B8C0604502D14FF0070C5A
:100580000FE0DFF8B0C0604502D14FF0080C08E082
:10059000DFF8A4C0604502D14FF0090C01E04FF034
:1005A0000A0C0CFA07FC4CEA060CCEF808C44F689B
:1005B000DBF80060FF0226EA020600D516435F461C
:1005C000CBF80060D1F804C0DBF804605FEA8C2C43
:1005D00026EA020600D516437E606E684F6826EA5A
:1005E0000206BF0300D516436E602E684F6826EAE8
:1005F0000206FF0300D516432E605B1C0A6832FA20
:1006000003F67FF411AFBDE8F88F000080000058BA
:10061000F44402580000025800040258000802582E
:10062000000C02580010025800140258001802581A
:10063000001C02580020025800240258006908409B
:1006400000D001207047000001480068000C70478E
:100650000010005C0148806870470000080000241A
:1006600002488168027811448160704708000024C4
:10067000032010B500F086F800F0F4FF0F4A10498F
:1006800014681368C4F3032203F00F038A5CC95C87
:1006900002F01F0201F01F01D0400A4A20FA01F1C6
:1006A0001160094908600F2000F010F808B101201E
:1006B00010BD00F02BF8002010BD000018440258B7
:1006C0000C3B0008040000240000002470B50D4D10
:1006D00004462878A0B14FF47A71B1FBF0F00A49D2
:1006E0000968B1FBF0F001F0F1FA48B9102C07D21B
:1006F00000222146501E00F025F800206C6070BDDD
:10070000012070BD0800002400000024054808B541
:10071000016841F002010160006800F002000090F1
:1007200008BD0000F4440258002809DB410900F02C
:100730001F028900012001F1E0219040C1F8000171
:10074000704700000E4BF0B41B680D46C3F3022344
:10075000C3F10706042E00D90426191D072901D26A
:10076000002300E0DB1E012404FA06F19C40491E30
:100770002940641E994014402143F0BC03F096B810
:100780000CED00E0064900F0070210B54FF6FF043B
:100790000868044B204040EA02201843086010BD5E
:1007A0000CED00E00000FA05134970B50A68D24369
:1007B000520705D5096801F00701814213D118E0FD
:1007C0000A6822F0070202430A60FFF743FF0A4D5E
:1007D0004FF47A760446083D07E000BFFFF73AFF82
:1007E000001BB04201D9012070BD2868C0438004BD
:1007F000F4D4002070BD00000C48025810B500F081
:10080000EBFE05490968054AC1F30211515C01F08C
:100810001F01C84010BD0000204402580C3B0008D6
:10082000494930B5484C0B1D0A68143409681D68E5
:10083000246802F00303C5F30012C1F30531C4F3C9
:10084000CC04002914FB02F200EE102AF8EE400A54
:1008500075D03F4A9FED3D1AB7EE000A6BB1DFED50
:100860003D1A012B01D0022B64D002EE101A116840
:10087000F8EE422A81EEA22A21E0334C283C23687C
:100880009B0612D5344B246801EE901A1168C4F30C
:10089000C104F8EE612AE34001EE903AC1F3080189
:1008A000F8EE611A81EEA22A0BE001EE901ADFED5C
:1008B0002B2A00BFF8EE611A116882EEA12AC1F35B
:1008C000080101EE901A1168F8EE611A40EE811AE3
:1008D00071EE800A62EE200AC1F3462101EE101A81
:1008E000B8EE411A31EE001AC0EE811ABCEEE11AE0
:1008F00080ED001A1168C1F3064101EE101AB8EE3E
:10090000411A31EE001AC0EE811ABCEEE11A80EDF8
:10091000011A1168C1F3066101EE101AB8EE411A0E
:1009200031EE000A80EE801ABCEEC10A80ED020AA8
:1009300030BD04E001EE901ADFED092ABAE700218C
:10094000016041608160F3E72844025800000039EB
:10095000384402580024744A0090D0030024744C98
:1009600020BCBE4B494930B5484C0B1D0A681C34AD
:1009700009681D68246802F00303C5F30022C1F36F
:100980000551C4F3CC04002914FB02F200EE102A36
:10099000F8EE400A75D03F4A9FED3D1AB7EE000AC7
:1009A0006BB1DFED3D1A012B01D0022B64D002EEBA
:1009B000101A1168F8EE422A81EEA22A21E0334C87
:1009C000283C23689B0612D5344B246801EE901A0C
:1009D0001168C4F3C104F8EE612AE34001EE903AD5
:1009E000C1F30801F8EE611A81EEA22A0BE001EED4
:1009F000901ADFED2B2A00BFF8EE611A116882EE23
:100A0000A12AC1F3080101EE901A1168F8EE611AEB
:100A100040EE811A71EE800A62EE200AC1F346218F
:100A200001EE101AB8EE411A31EE001AC0EE811A2A
:100A3000BCEEE11A80ED001A1168C1F3064101EE27
:100A4000101AB8EE411A31EE001AC0EE811ABCEE4F
:100A5000E11A80ED011A1168C1F3066101EE101A66
:100A6000B8EE411A31EE000A80EE801ABCEEC10ADF
:100A700080ED020A30BD04E001EE901ADFED092A94
:100A8000BAE70021016041608160F3E72844025821
:100A900000000039404402580024744A0090D003FA
:100AA0000024744C20BCBE4B2DE9FC5F044650F87A
:100AB000241B002500902E460801FE4FDFF8F88326
:100AC0001DD5606E50B1B0F5801F0CD0B0F5001F81
:100AD0000ED0B0F5401F1DD001250FE0386840F45E
:100AE0000030386016E00221201D01F0B5FF03E060
:100AF0000098022102F040F805000BD02E46208815
:100B0000C00523D5606D05281ED2DFE800F00C116A
:100B1000161B1B00626ED8F8001021F4401111431F
:100B2000C8F80010EBE7386840F40030386009E09E
:100B30000021201D01F090FF03E00098002102F049
:100B40001BF805466DB100E001252E462088800582
:100B500028D5A06D80281ED00CDC90B140280ED185
:100B600014E0626DD8F8001021F007011143C8F8B5
:100B70000010EBE7C02813D0B0F5807F10D001251E
:100B80000FE0386840F40030386009E00021201D93
:100B900001F062FF03E00098002101F0EDFF05463F
:100BA00095B12E462088DFF81093400509F1080919
:100BB0002CD5D4F8A400B0F5800F20D00DDCA0B166
:100BC000B0F5001F0FD115E0A26DD8F8001021F488
:100BD000E0711143C8F80010E4E7B0F5C00F13D07E
:100BE000B0F5000F10D001250FE0386840F4003058
:100BF000386009E00021201D01F02EFF03E000987D
:100C0000002101F0B9FF054675B12E462088000588
:100C10002DD5D4F8A800B0F1007F21D00EDCA8B10A
:100C2000B0F1807F10D116E0D4F8A420D9F80010DC
:100C300021F460011143C9F80010E7E7B0F1407FEB
:100C400013D0B0F1806F10D001250FE0386840F468
:100C50000030386009E00021201D01F0FDFE03E0B6
:100C60000098002101F088FF05466DB12E462068EE
:100C700080011FD5A06CD8B110280FD0202812D029
:100C8000302815D0012514E0D4F8A820D9F8001098
:100C900021F0E0611143C9F80010E8E7386840F43A
:100CA0000030386004E00221201D01F0D5FE054629
:100CB0006DB12E462088C0042BD5E06DB0F5005FE5
:100CC00020D00DDCA0B1B0F5805F0FD115E07A48DF
:100CD000A26C001F016821F0300111430160E9E7B7
:100CE000B0F5405F13D0B0F5804F10D001250FE074
:100CF000386840F40030386009E00021201D01F020
:100D0000ABFE03E00098002101F036FF054685B1F7
:100D10002E462088800429D5206EB0F5403F23D090
:100D200010DC08B3B0F5803F14D0B0F5003F0FD110
:100D300015E0E26DD8F8001021F4E0411143C8F845
:100D40000010E6E7B0F5802F0ED0B0F5A02F0BD045
:100D500001250AE00121201D01F07EFE03E000983C
:100D6000012101F009FF05468DB12E46208840047F
:100D70002AD5D4F8AC00B0F1405F23D010DC08B322
:100D8000B0F1805F14D0B0F1005F0FD115E0226E9A
:100D9000D8F8001021F4E0211143C8F80010E5E76D
:100DA000B0F1804F0ED0B0F1A04F0BD001250AE07A
:100DB0000121201D01F050FE03E00098012101F007
:100DC000DBFE05466DB12E46208800041FD5E06E7F
:100DD000D8B1B0F1805F0ED0B0F1005F10D0012526
:100DE00014E0D4F8AC20D9F8001021F0E041114310
:100DF000C9F80010E8E7386840F40030386004E0D3
:100E00000121201D01F028FE05466DB12E46206807
:100E1000C0011ED5606CD0B101280ED0022811D0BF
:100E2000032814D0012513E0E26ED8F8001021F059
:100E300040511143C8F80010E9E7386840F4003029
:100E4000386004E00221201D01F006FE054685B150
:100E50002E462068DFF85CB04002ABF11C0B57D582
:100E60001648016841F480710160FFF7F3FB824688
:100E70000EE01148626C001F016821F0030111436C
:100E80000160E6E7FFF7E6FBA0EB0A0064283DD827
:100E90000A480068C005F5D57DBBDFF81CA0B4F892
:100EA000B0200AF1200ADAF8001002F4407001F4D0
:100EB000407105E02C440258504402580048025842
:100EC000814211D0DAF80010DAF8002021F44071E4
:100ED00042F48032CAF80020DAF8002022F480328E
:100EE000CAF80020CAF80010D4F8B000B0F5807F2E
:100EF00021D1FFF7AFFB019019E008E0FFF7AAFB53
:100F00000199411A41F28830814210D903252E46B9
:100F10002078DFF844A4C0073DD0A06F182838D04F
:100F200026DC80B3082829D0102825D12CE0DAF857
:100F300000008007E2D5D4F8B010C1F301200328E7
:100F400058460DD0016821F47C510160B4F8B020FE
:100F5000DAF80010C2F30B021143CAF80010D7E709
:100F6000FE4A036802EA111223F47C511143ECE7B4
:100F700020280ED028280CD001250BE00121201DAF
:100F800001F06AFD04E004E00098012101F0F4FDA5
:100F900005465DB12E46207880071ED5606F062875
:100FA00019D2DFE800F0160C11161616A26FDAF847
:100FB000001021F038011143CAF80010EBE70121BD
:100FC000201D01F049FD03E00098012101F0D4FD4E
:100FD000054675B100E001252E46207840071FD553
:100FE000D4F89000062819D2DFE800F0160C11168C
:100FF0001616626FDAF8001021F007011143CAF8E3
:101000000010EAE70121201D01F026FD03E0009811
:10101000012101F0B1FD05469DB100E001252E46FC
:10102000207880062BD5D4F88C00B0F1405F24D016
:1010300011DC10B3B0F1805F15D0B0F1005F10D1BA
:1010400016E0D4F89020D9F8001021F007011143E0
:10105000C9F80010E4E7B0F1804F0ED0B0F1A04F16
:101060000BD001250AE00021201D01F0F5FC03E072
:101070000098022101F080FD05468DB12E462078B2
:1010800040062BD5D4F89800B0F5406F24D011DC81
:1010900010B3B0F5806F15D0B0F5006F10D116E029
:1010A000D4F88C20DAF8001021F0E0411143CAF89E
:1010B0000010E4E7B0F5805F0ED0B0F5A05F0BD074
:1010C00001250AE00021201D01F0C6FC03E0009884
:1010D000022101F051FD05468DB12E462078000613
:1010E0002BD5D4F89C00B0F5C04F24D011DC10B340
:1010F000B0F5005F15D0B0F5804F10D116E0D4F8F0
:101100009820D9F8001021F4E0511143C9F80010DB
:10111000E4E7B0F5004F0ED0B0F5204F0BD001251D
:101120000AE00021201D01F097FC03E00098022155
:1011300001F022FD05464DB12E46207800071ED550
:10114000D4F88000B0F5805F0AD00FE0D4F89C207E
:10115000D9F8001021F460411143C9F80010ECE700
:101160000098022101F008FD00B10126D4F880208A
:10117000DAF8001021F440511143CAF80010207829
:10118000C00613D5D4F89400B0F5807F05D100983F
:10119000022101F0F1FC00B10126D4F89420D9F825
:1011A000001021F440711143C9F8001020680003B9
:1011B00016D5D4F8A00038B1B0F5803F09D0B0F50D
:1011C000003F0BD001250AE00021201D01F044FC66
:1011D00003E00098022101F0CFFC054685B12E46C0
:1011E0002068400322D5D4F88400B0F5801F11D0C8
:1011F000B0F5001F13D0B0F5401F15D0012514E045
:10120000D4F8A020D9F8001021F440311143C9F8D6
:101210000010E5E7386840F40030386004E00098DA
:10122000012101F0A9FC054655B12E462068C003F6
:101230001CD5E06C70B1B0F5803F10D0012514E0F2
:10124000D4F88420DAF8001021F440111143CAF8D0
:101250000010EBE7386840F40030386004E0022109
:10126000201D01F0F9FB0546CDB12E462068800017
:1012700005D50098022101F07FFC00B1012620680D
:1012800080031BD5E06FB8B1B0F5807F10D0B0F50A
:10129000007F11D0B0F5407F0ED001250DE02E4823
:1012A000E26C0838016821F4803111430160DDE708
:1012B000386840F400303860F5B32E462068C0022C
:1012C00007D5226FD8F8001021F000411143C8F86B
:1012D00000102068C00008D5D4F8B420DBF8001056
:1012E00021F480411143CBF800102068800207D51B
:1012F000A26ED8F8001021F080711143C8F80010D8
:10130000206840000CD5DBF8001021F40041CBF838
:101310000010DBF80010D4F8B8201143CBF800100F
:101320002068002807DA0C48226D0838016821F08F
:1013300040511143016000E014E02068000208D52C
:10134000D4F88820DAF8001021F440011143CAF8DB
:10135000001086B1012003E054440258CFFFFF0083
:10136000BDE8FC9FE26FDAF8001021F440711143F0
:10137000CAF80010A2E70020EDE700002DE9F05FB9
:1013800004000F467ED0DFF83882D8F8000000F065
:101390000F00B8420CD2D8F8001021F00F013943E9
:1013A000C8F80010D8F8000000F00F00B84269D16A
:1013B0002078844D40070AD52069296801F0700122
:1013C000884204D9296821F07001014329602078FE
:1013D0007C4E361D00070AD56069316801F0700146
:1013E000884204D9316821F07001014331602078CE
:1013F000C0060AD5A069316801F4E061884204D9C9
:10140000316821F4E061014331602078DFF8B4B144
:1014100080060BF1080B0CD5E1695846DBF800207B
:1014200002F07002914204D9026822F070020A436D
:101430000260207880070AD5E068296801F00F0172
:10144000884204D9296821F00F01014329602078DE
:10145000C0073ED05B49A2682868183920F4706044
:10146000104328606068022818D0032819D0096842
:10147000012819D0490700294ADADFF848A1AAF162
:10148000080A00E044E0DAF8002022F007020243F4
:10149000CAF80020FFF7DEF8814612E009688903E8
:1014A000E9E709688901E6E7C905E4E7FFF7D2F84B
:1014B000A0EB090141F28830814202D90320BDE846
:1014C000F09F6168DAF8000000F03800B0EBC10F5F
:1014D000ECD1207880070AD5E068296801F00F0177
:1014E000884204D2296821F00F0101432960D8F80D
:1014F0000010404601F00F01B9420BD9016821F0FC
:101500000F0139430160006800F00F00B84201D0BC
:101510000120D4E7207840070AD52069296801F026
:101520007001884204D2296821F0700101432960CA
:10153000207800070AD56069316801F0700188429F
:1015400004D2316821F07001014331602078C00677
:101550000AD5A069316801F4E061884204D231689B
:1015600021F4E06101433160207880060CD5E16907
:101570005846DBF8002002F07002914204D2026863
:1015800022F070020A43026000F06CF80E492A68EB
:101590002B68C2F3032203F00F038A5CC95C02F0DC
:1015A0001F0201F01F01D040084A20FA01F111602A
:1015B0000749086007480068BDE8F05FFFF786B894
:1015C00000200052184402580C3B0008040000247C
:1015D000000000240C00002430B500F043F80B4A52
:1015E0000B490C4B15681468C5F3032204F00F0473
:1015F0008A5C095D02F01F0201F01F01D040064A1B
:1016000020FA01F119601060084630BD18440258F4
:101610000C3B0008040000240000002400B5FFF784
:10162000DBFF05490968054AC1F30211515C01F06D
:101630001F01C84000BD00001C4402580C3B0008BC
:1016400000B5FFF7C9FF05490968054AC1F3022142
:10165000515C01F01F01C84000BD00001C4402584D
:101660000C3B0008454970B545480968434B103BA1
:1016700011F0380208D00111082A03D0102A0BD02B
:10168000182A0BD0084670BD19688906FBD5196861
:10169000C1F3C101C84070BD3A4870BD3749374DEC
:1016A00018310C1D24350A68096826682D6802F077
:1016B000030406F00102C1F30511C5F3CC0515FBC7
:1016C00002F200EE102AB8EE400AE9B32F4ADFED2D
:1016D0002E0AB7EE001A6CB1DFED2D1A012C01D0E5
:1016E000022C43D002EE101A1068F8EE422A81EE66
:1016F000A22A1EE01C68A40611D51B6801EE901AF0
:101700001168C3F3C103F8EE612AD84001EE900AD4
:10171000C1F30800F8EE611A81EEA22A0BE001EE97
:10172000901ADFED1C2A00BFF8EE611A106882EEF5
:10173000A12AC0F3080001EE900AF8EE611A40EE0B
:10174000201A31EE810A00E015E022EE000A10684E
:10175000C0F34620401C00EE900AF8EE600A80EECE
:10176000201ABCEEC10A10EE100A70BD01EE901AEC
:10177000DFED092AD8E7002070BD000010440258B0
:101780000090D00340787D010000003930440258B9
:101790000024744A0024744C20BCBE4B2DE9F05F39
:1017A00004007DD0FF4F2078FE4D1837DFF8F4930A
:1017B000103DC00748D0D9F80000396800F0380063
:1017C000102815D0182803D101F0030002280FD0EB
:1017D0006068B0F5803F12D010B1B0F5A02F18D0DE
:1017E000286820F480302860286820F4802009E0F0
:1017F0002868800328D560680028D2D024E02868B3
:1018000040F480302860606888B1FEF723FF064608
:1018100009E0286840F480202860F0E7FEF71AFF0E
:10182000801B64286FD828688003F7D50CE0FEF78A
:1018300011FF064605E000BFFEF70CFF801B642881
:10184000F0D828688003F7D4207841F20308D54EF9
:101850000C3E800769D5D9F80000396810F03800CF
:101860000ED0182801D188070AD0E06890B3296803
:1018700021F0190101432960FEF7ECFE824631E0B8
:101880002868400702D5E06800288AD0E168286807
:1018900020F0190008432860FEF7DCFE824607E0CE
:1018A000DFE000BFFEF7D6FEA0EB0A000228B9D8A1
:1018B00028684007F6D500BFFEF7C6FE40451BD896
:1018C0002069402812D0316821F47C3141EA00308F
:1018D00030602AE018E000BFFEF7BCFEA0EB0A0073
:1018E00002289FD828684007F6D5E5E7306820F43D
:1018F0007C3040F40030EBE7207C316821F0FE4181
:1019000041EA0060E4E70DE1286820F0010028606A
:10191000FEF7A0FE824605E0FEF79CFEA0EB0A0063
:1019200002288DD828684007F6D42078C0065DD5F7
:10193000D9F80000DFF86CB2396800F03800ABF17C
:10194000040B082810D0182803D101F00300012847
:101950000AD0E0690028286838D040F0800028606C
:10196000FEF778FE824623E02868C00523D5E069AB
:10197000802876D11FE0206A202821D0316821F00C
:10198000F84141EA8060306030E000BF94F82010F8
:10199000DBF8002022F07C5242EA0161CBF8001013
:1019A00024E000BFFEF756FEA0EB0A00022898D8FC
:1019B0002868C005F6D5FEF747FE4045E6D8DAE7C9
:1019C000306820F0F84040F08040DCE720F08000F4
:1019D0002860FEF73FFE064605E000BFFEF73AFE30
:1019E000801B02289DD82868C005F7D420780007FE
:1019F00029D56C486169643000298046016811D09E
:101A000041F001010160FEF725FE064605E000BF3A
:101A1000FEF720FE801B0228C9D8D8F800008007F6
:101A2000F6D510E021F001010160FEF713FE064635
:101A300005E000BFFEF70EFE801B022872D8D8F822
:101A400000008007F6D42078800623D5A0690028FE
:101A5000286810D040F480502860FEF7FBFD064651
:101A600005E02CE1FEF7F6FD801B02285AD8286815
:101A70008004F7D50EE020F480502860FEF7EAFDE0
:101A8000064604E0FEF7E6FD801B02284AD82868D7
:101A90008004F7D4207840074FD5DFF80C81D8F8C0
:101AA000001041F48071C8F80010FEF7D3FD06461F
:101AB00005E000BFFEF7CEFD801B642832D8D8F8C1
:101AC0000000C005F6D5374EA068603601280AD060
:101AD00008B1052813D0306820F00100306030686C
:101AE00020F0040002E0306840F001003060A0689F
:101AF00041F2883A90B1FEF7ADFD80460AE03068C9
:101B000040F004003060EEE7FEF7A4FDA0EB080112
:101B1000514507D830688007F6D50EE0FEF79AFDEC
:101B2000804607E084E000BFFEF794FDA0EB0801CB
:101B300051457DD830688007F6D4606AB0B3DFF8CD
:101B40006480D9F8001008F12008C1F3C20103290C
:101B50006FD00228286820F08070286003D0FEF73C
:101B600079FD044680E0FEF775FD064605E000BFFE
:101B7000FEF770FD801B022873D828688001F7D417
:101B8000E26A40F2F331386854F8283F884340EA6B
:101B9000021018433860217B4FF4FE0C22894FF06D
:101BA000FE4704E0104402580048025889E0208AA9
:101BB0004902521E267DA1F5007189B2401EC2F372
:101BC00008021143761E0CEA004001433E4807EA32
:101BD000066211433C4AC8F800100832016821F03F
:101BE0000101016011684FF6F876236AB14341EABA
:101BF000C30111600168A26921F00C011143016069
:101C00000168E26921F0020111430160016841F4B9
:101C100080310160016841F400310160016841F4E4
:101C200080210160016841F001010160286801E044
:101C300017E01DE040F080702860FEF70BFD0446C1
:101C400005E000BFFEF706FD001B022809D8286842
:101C50008001F7D535E000BFFEF7FCFC001B022831
:101C600002D90320BDE8F09F28688001F4D428E061
:101C700039680128D8F8000021D0A26A01F00303D6
:101C800093421CD1E26AC1F305118A4217D1216B3C
:101C9000C0F30802491E8A4211D1616BC0F346228B
:101CA000491E91420BD1A16BC0F30642491E9142DD
:101CB00005D1E16BC0F30660491E814201D00120CD
:101CC000D0E70020CEE700002C440258401EB0F1BF
:101CD000807F10B501D3012010BD4FF0E02460617A
:101CE0000F21601701F0E2FD0020A06107212161B2
:101CF00010BD7047704770472DE9F04390F83C20C5
:101D0000012A42D0012280F83C2051F80C4BDFF828
:101D100080804FF0000991E8680051E9022723F420
:101D20004073B1F80CC03B43CF6923F48063134385
:101D3000026823F40063234323F4805343EA05033A
:101D400023F4005343EA060323F4804343EA0703E2
:101D50000C3923F47023424543EA0C4302D00D4C66
:101D6000A2420CD18D8C23F47006D1E9073446EAE7
:101D7000055121F08071194321F00073234353640E
:101D800080F83C900020BDE8F0830220FBE70000D3
:101D90000000014000040140F0B590F83C20012A09
:101DA0003BD01F4E012480F83C40022280F83D20A9
:101DB00002681C4D5368B242D2F808C001D0AA4252
:101DC00003D14F6823F470033B430F6823F0700383
:101DD0001F4357600268B24213D0B2F1804F10D057
:101DE000114B9A420DD0114B9A420AD0104B9A4295
:101DF00007D0AA4205D00F4B9A4202D00E4B9A420E
:101E000004D189682CF0800319439160002180F887
:101E10003D4080F83C100846F0BD0220F0BD0000B7
:101E200000000140000401400004004000080040A0
:101E3000000C0040001800400040014010B50400B4
:101E400003D094F83D0010B107E0012010BD002040
:101E500084F83C00204600F023F8022084F83D007E
:101E60002068211D00F0DEFF012084F8480084F87E
:101E70003E0084F83F0084F8400084F8410084F874
:101E8000420084F8430084F8440084F8450084F854
:101E9000460084F8470084F83D00002010BD000093
:101EA00008B500680F4988421AD10F48016841F00F
:101EB0000101016000680022012100F00100009092
:101EC0001920FEF73FFC1920FEF72EFC002201210D
:101ED0001B20FEF737FCBDE808401B20FEF724BCA2
:101EE00008BD000000000140F044025890F83D1089
:101EF000012901D001207047174A022180F83D10C6
:101F00000168CB6843F00103CB600068904214D0B5
:101F1000B0F1804F11D0114988420ED0104988424B
:101F20000BD01049884208D00F49884205D00F498C
:101F3000884202D00E49884207D181680D4A11407B
:101F4000062906D0B1F5803F03D0016841F00101B8
:101F500001600020704700000000014000040040C4
:101F600000080040000C0040000401400018004040
:101F7000004001400700010070B5044690F83C00A5
:101F80000025012814D03A4B012684F83C60022039
:101F900084F83D0022689068184020F47F409060EB
:101FA000086870282FD010DC10F00F0F03D022E04B
:101FB0004FF0020070BD4FEA2012072A1BD2DFE863
:101FC00002F0535353534B394100B0F1101F4BD023
:101FD00009DCB0F5805F0FD0B0F5005F1ED0B0F522
:101FE000801F08D140E0A0F5801120393CD0102995
:101FF0003AD0202938D0012584F83D60002084F8AB
:102000003C00284670BD4A682068D1E9021300F000
:1020100078FF2068816841F0770109E04A6820680C
:10202000D1E9021300F06DFF2068816841F480411E
:102030008160E1E7CA684968206801F011F9206809
:10204000502106E0CA684968206801F01AF9206842
:10205000602100F05FFFCFE7CA684968206801F09F
:10206000FFF820684021F4E7226801461046F0E7B7
:1020700088FFCEFF704770B50446006800250169EF
:10208000C943890715D4C168C943890711D4EA1E19
:10209000026101212177206880698007204602D0F3
:1020A000FFF7E8FF04E000F0D1F8204600F0C8F99F
:1020B000257720680169C943490717D4C168C94316
:1020C000490713D402216FF00402026121772068CE
:1020D000806910F4407F204602D0FFF7CBFF04E078
:1020E00000F0B4F8204600F0ABF9257720680169CC
:1020F000C943090716D4C168C943090712D404218A
:102100006FF00802026121772068C06980072046CD
:1021100002D0FFF7AFFF04E000F098F8204600F08F
:102120008FF9257720680169C943C90617D4C168AA
:10213000C943C90613D408216FF010020261217748
:102140002068C06910F4407F204602D0FFF792FF5C
:1021500004E000F07BF8204600F072F92577206853
:102160000169C943C90708D1C168C943C90704D176
:10217000891E0161204600F03BFA20680169C943CD
:10218000090609D4C168C943090605D46FF0800166
:1021900001612046FFF7AEFD20680169C943C9050A
:1021A00009D4C168C943090605D46FF4807101617F
:1021B0002046FFF79EFD20680169C943490609D4FE
:1021C000C168C943490605D46FF04001016120464A
:1021D00000F028FA20680169C94389060BD4C16858
:1021E000C943890607D46FF0200101612046BDE88C
:1021F0007040FFF780BD70BD10B586B00446142155
:102200006846FEF79DF80E492068884216D10D48B1
:10221000016841F01001016000680123022200F012
:102220001000059000204FF4206100916946CDE92F
:102230000120CDE903030448FEF7EAF806B010BD1B
:1022400000000140E04402580010025870B50D49EA
:1022500004460068884213D10B4E41153046FEF704
:10226000EDF94FF4006105463046FEF7E7F9034605
:102270002068416A2A46BDE8704004A001F006BB10
:1022800070BD0000000001400010025848414C5F42
:1022900054494D5F4F435F44656C6179456C617093
:1022A00073656443616C6C6261636B3A25642025DD
:1022B000642025640D0A000070B5044690F83C00C7
:1022C00000260D4601280BD0012084F83C000C2A82
:1022D0004AD007DC82B1042A20D0082A06D131E096
:1022E000022070BD102A53D0142A63D0012600208A
:1022F00084F83C00304670BD206800F015FE206870
:10230000816941F0080181612068816921F004013F
:10231000816120682A698169114311E0206800F019
:1023200057FE2068816941F40061816120688169FC
:1023300021F48061816120682969826942EA012172
:102340008161D4E7206800F08FFE2068C16941F008
:102350000801C1612068C16921F00401C1612068E0
:102360002A69C169114311E0206800F0C9FE2068A4
:10237000C16941F40061C1612068C16921F48061D3
:10238000C16120682969C26942EA0121C161AEE7E1
:10239000206800F0F1FE2068416D41F008014165C0
:1023A0002068416D21F00401416520682A69416D72
:1023B000114311E0206800F019FF2068416D41F4DD
:1023C000006141652068416D21F4806141652068AC
:1023D0002969426D42EA0121416588E710B5040090
:1023E00003D094F83D0010B107E0012010BD00209B
:1023F00084F83C00204600F022F8022084F83D00DA
:102400002068211D00F00EFD012084F8480084F8AA
:102410003E0084F83F0084F8400084F8410084F8CE
:10242000420084F8430084F8440084F8450084F8AE
:10243000460084F8470084F83D00002010BD704736
:1024400070B50D4904460068884213D10B4E411502
:102450003046FEF7F3F84FF4006105463046FEF7CC
:10246000EDF803462068416A2A46BDE8704004A0A2
:1024700001F00CBA70BD00000000014000100258CD
:1024800048414C5F54494D5F50574D5F50756C73D8
:102490006546696E697368656443616C6C6261630B
:1024A0006B3A25642025642025640D0A0000000095
:1024B00070B504464FF002024FF0000569B10429DF
:1024C00016D008295BD00C2964D0102969D094F863
:1024D000430001286CD0012070BD94F83E00012813
:1024E000F9D184F83E202068C26842F0020209E077
:1024F00094F83F000128EED184F83F202068C2689C
:1025000042F00402C2602068012200F0EDFC2E4976
:1025100020682E4A2E4B884209D0904207D098421C
:1025200005D02C4EB04202D02B4EB04203D1466CA7
:1025300046F4004646642068884212D0B0F1804FCD
:102540000FD0264988420CD02549884209D0254918
:10255000884206D0904204D02349884201D0984254
:1025600007D18168214A1140062906D0B1F5803F84
:1025700003D0016841F001010160284670BD94F864
:1025800040000128A7D184F840202068C26842F0AA
:102590000802B7E794F8410001289CD184F8412053
:1025A00008E094F84200012895D184F8422003E025
:1025B00084F843200C2901D00125DEE72068C26899
:1025C00042F010029EE700000000014000040140BC
:1025D0000040014000440140004801400004004028
:1025E00000080040000C00400018004007000100F7
:1025F00000680349884202D102A001F047B9704740
:102600000000014048414C5F54494D5F506572697C
:102610006F64456C617073656443616C6C62616387
:102620006B0D0A00704730B590F88010012918D062
:10263000012280F880202421C0F884100022202468
:1026400050F8641B0B680D6823F0005325F001055A
:102650000D60026050F8641C0B6004620277104643
:1026600030BD022030BD70B5044690F880000128CE
:102670001DD0012284F880202420C4F88400206822
:102680000568026822F0010202602068826822F078
:1026900060620A438260204600F006FE2268202124
:1026A00000201560C4F8841084F8800070BD0220FA
:1026B00070BD70B5044690F8800001281DD001223D
:1026C00084F880202420C4F884002068056802680B
:1026D00022F0010202602068826822F060420A4310
:1026E0008260204600F0E0FD226820210020156075
:1026F000C4F8841084F8800070BD022070BD10B54D
:10270000040003D0D4F8840010B107E0012010BD0C
:10271000002084F88000204600F026F82420C4F829
:1027200084002068016821F001010160204600F06A
:1027300071FE0128EBD0A06A10B1204600F0D6FD52
:102740002068416821F4904141602068816821F04F
:102750002A0181602068016841F001010160204682
:10276000BDE8104000F026BE10B5B6B004461421F6
:102770002FA8FDF7E5FDBC216846FDF7E1FD1849EE
:102780002068884229D104200090002468462494BF
:10279000FEF78AF908B1FDF727FE1248016841F0FB
:1027A00008010160006800F0080034900D481438FA
:1027B000016841F00101016000682FAB022100F0C7
:1027C000010034904FF4C060032283E813000648F0
:1027D0002FA9CDE93242FDF71BFE36B010BD000037
:1027E000000C0058F4440258000002582DE9F84348
:1027F0000446D0F884001F4616460D46202852D1C4
:10280000DDB1D6B194F8800001284CD0012084F8C5
:10281000800021224FF00008C4F88C80C4F8842086
:102820001834FDF717FF814654F8100CA687E68789
:10283000183CB0F5805F03D004E00120BDE8F883C8
:10284000206920B12E46002584F8808010E0002603
:10285000FAE78021204600F0B3FFB8B9C6B116F8F8
:10286000010B21688862B4F85600401EA4F8560097
:10287000B4F856004B464FF0000200970028E8D10C
:102880004FF04001204600F09BFF38B10320D5E710
:1028900035F8020B2168C0F30800E3E72020C4F8F4
:1028A00084000020CAE70220C8E7FEE7114808B507
:1028B000016841F004010160016801F00401009128
:1028C000016841F080010160016801F08001009120
:1028D000016841F010010160016801F010010091F0
:1028E000016841F001010160006800F00100009002
:1028F00008BD0000E04402581848002110B5164CED
:102900000C224FF4E1330460C0E90131C160C0E939
:10291000041281610162416281624166FFF7EFFE4C
:1029200008B1FDF761FD0D480021FFF7C2FE08B1B7
:10293000FDF75AFD09480021FFF795FE08B1FDF7A4
:1029400053FD0648FFF76FFE002803D0BDE8104096
:10295000FDF74ABD10BD0000000C0058180000240F
:1029600030B599B000241C21009412A8019402945F
:102970000394049405940694FDF7E2FC2C2107A827
:10298000FDF7DEFC31484FF6FF122F498025632307
:1029900080E81600C0E90334C0E90545FFF74EFAA8
:1029A00008B1FDF721FD4FF480500090274869469B
:1029B000FFF7E2FA08B1FDF717FD2448FFF70EFD17
:1029C00008B1FDF711FD214804A90494059406946B
:1029D000FFF7E2F908B1FDF707FD12AB60203221E5
:1029E000022283E817001948002212A916941794AE
:1029F0001894FFF761FC08B1FDF7F6FC1420CDE94F
:102A000013041248042212A9FFF756FC08B1FDF77F
:102A1000EBFC4FF4005007940894099401030A94C6
:102A2000CDE90B40CDE90E41084807A90D9410945B
:102A30001194FFF761F908B1FDF7D6FC0348FFF7E1
:102A4000DBFB19B030BD000000000140A8000024ED
:102A5000FEE7FEE7704700002DE9F047454D0446CC
:102A600089464FF0000A2868C04380070AD0414ECB
:102A7000283E306820F080603060FDF7EBFD0746AF
:102A8000B04608E00120BDE8F08700BFFDF7E2FD99
:102A9000C01B022867D8D8F800000001F6D42068CF
:102AA00029684FF4FE0721F47C313E0241EA0030F0
:102AB0002860207AA389B4F804C040022D4D2D4926
:102AC0005B1E227CACF1010C1035091DA0F50070D5
:102AD00080B2521ECCF3080C07EA034340EA0C0014
:102AE000184306EA0262104328600868626920F011
:102AF000C000104308600A68A06922F02002024367
:102B00000A60281D0A6822F010020A6002684FF667
:102B1000F873E4699A4342EAC40202600868B9F1B2
:102B2000000F40F010020A6011D00868B9F1010FDF
:102B300011D040F400100860D8F80000444640F07E
:102B40008060C8F80000FDF785FD05460DE00868C7
:102B500040F40020EFE740F48010ECE7FDF77AFD49
:102B6000401B022801D903208DE720680001F5D51C
:102B7000504688E7284402582DE9F047454D044661
:102B800089464FF0000A2868C04380070AD0414EAA
:102B9000283E306820F080503060FDF75BFD07462E
:102BA000B04608E00120BDE8F08700BFFDF752FD08
:102BB000C01B022867D8D8F800008000F6D420880F
:102BC00029684FF4FE0721F07C713E0241EA005073
:102BD0002860207AA389B4F804C040022D4D2D4905
:102BE0005B1E227CACF1010C1835091DA0F50070AC
:102BF00080B2521ECCF3080C07EA034340EA0C00F3
:102C0000184306EA0262104328600868626920F4EB
:102C10004060104308600A68A06922F40072024311
:102C20000A60281D0A6822F480720A6002684FF662
:102C3000F873E4699A4342EAC40202600868B9F191
:102C4000000F40F480720A6011D00868B9F1010FDA
:102C500011D040F080700860D8F80000444640F081
:102C60008050C8F80000FDF7F5FC05460DE0086847
:102C700040F48000EFE740F40000ECE7FDF7EAFCE9
:102C8000401B022801D903208DE720688000F5D57C
:102C9000504688E7284402587047FDF7E1BC000021
:102CA00030B59DB04C216846FDF74AFB202113A8A2
:102CB000FDF746FB0220FDF777FD1B490A681B481C
:102CC00022F001020A600968016821F4404141F4E0
:102CD000804101600168002401F440411B910168BA
:102CE0008904FCD540250994022000900121684602
:102CF000CDE90315FEF752FD08B172B6FEE73F209D
:102D0000CDE913044FF480611594CDE9164513A85D
:102D10001A94CDE918410121FEF730FB002801D0BB
:102D200072B6FEE71DB030BD2C040058184802589A
:102D30002C48F0B52C4A016841F47001016010681C
:102D400000F00F00072804D2106820F00F00C01D0B
:102D5000106026490020254C10340B68244D43F0A8
:102D600001030B6020600B682B400B60136803F0BD
:102D70000F03072B04D9136823F00F03DB1D136027
:102D80001A4C1C4A18341C4B261D371D2060174C4A
:102D90001A4D28343060261D3860371D23603B1DD6
:102DA00035601C1D3A60251D2E1D1860331D2260E4
:102DB0002860326018600A680C4B114C22F48022A3
:102DC00060330A60186020686FF30F00B0F1005F95
:102DD00003D20C490120C1F8080143F2D2000A498C
:102DE0000860F0BD88ED00E0002000520044025869
:102DF0007FEDF6EA80020101000202020000FF01FD
:102E00000010005C00800051004000520148FFF7B4
:102E100032B90000A80000240148FFF72CB90000D7
:102E2000A80000242DE9F047274B4FF0804A274D9A
:102E300002689842264E274F274C09D0504507D0AC
:102E4000A84205D0B04203D0B84201D0A04205D17B
:102E5000D1F804C022F070024CEA0202DFF87CC014
:102E6000DFF87C809842DFF87C900FD050450DD081
:102E7000A8420BD0B04209D0B84207D0A04205D03A
:102E8000604503D0404501D0484503D1CD6822F4C8
:102E900040722A434D6922F080022A430260984220
:102EA0008A68C2620A68826207D0A04205D0604583
:102EB00003D0404501D0484501D109690163012192
:102EC0004161BDE8F08700000000014000040040BF
:102ED00000080040000C0040000401400040014098
:102EE000004401400048014010B5046A012301F08C
:102EF0001F018B409C4304628A40016A11430162B6
:102F000010BD42EA032283680A4323F47F410A4347
:102F100082607047034B82681A400A4342F00701FF
:102F2000816070478FFFCFFF2DE9F04F026ADFF815
:102F30008880DFF8889022F00102DFF884A0DFF8B3
:102F400084B0214F0262DFF884C0066A4268836958
:102F500026F002060D68B8428C6803EA0C0323F0E1
:102F6000030344EA060445EA030507D0404505D0BB
:102F7000484503D0504501D0584505D1CB6824F0D1
:102F80000804234323F00404B84207D0404505D089
:102F9000484503D0504501D0584505D122F440762C
:102FA000D1E9053233431A43426085614968416380
:102FB0000462BDE8F08F00000004014000400140C1
:102FC0000044014000480140000001408FFFFEFF27
:102FD000F0B5026A1E4E1F4C22F01002DFF878E0B6
:102FE0000262056A4368826925F02005D1F808C0AD
:102FF000A0420F6802EA060222F4407245EA0C156C
:1030000042EA072201D0704506D1CE6825F080053E
:1030100045EA061525F04005A0420AD0704508D0C3
:103020000E4CA04205D00E4CA04202D00D4CA04246
:1030300007D1D1E9054623F4406343EA840343EA18
:10304000860343608261496881630562F0BD0000C8
:10305000FF8FFFFE000001400004014000400140DE
:103060000044014000480140F0B5026A1E4F1F4E67
:1030700022F48072DFF878E00262056A4368C26970
:1030800025F40075D1F808C0B0420C6802EA0702C6
:1030900022F0030245EA0C2544EA020401D07045FF
:1030A00006D1CF6825F4006242EA072222F4806547
:1030B000B0420AD0704508D00E4A904205D00E4A60
:1030C000904202D00D4A904207D123F44052D1E9F8
:1030D000053642EA031242EA06134360C4614968B6
:1030E000C1630562F0BD00008FFFFEFF00000140DC
:1030F00000040140004001400044014000480140FC
:10310000F0B5026A174B164F22F4805298420262C1
:10311000046A4268C36924F400548E680D6803EAA7
:10312000070323F4407344EA063443EA05230BD033
:103130000D4DA84208D00D4DA84205D00C4DA84217
:1031400002D00C4DA84204D14D6922F4804242EADB
:1031500085124260C361496801640462F0BD0000E9
:10316000FF8FFFFE000001400004014000400140CD
:103170000044014000480140F0B5026ADFF854C045
:1031800022F480320262056A4268446D25F40035FB
:103190000E896045104F0B6804EA070445EA0645AE
:1031A00043EA04030BD00D4CA04208D00C4CA042C3
:1031B00005D00C4CA04202D00B4CA04204D14C696B
:1031C00022F4803242EA0422426043654968816504
:1031D0000562F0BD000001408FFFFEFF00040140CA
:1031E000004001400044014000480140F0B5026A3F
:1031F000DFF854C022F480120262046A4268436D10
:1032000024F400140E896045104F0D6803EA07038B
:1032100044EA065443EA05230BD00D4DA84208D0DA
:103220000C4DA84205D00C4DA84202D00B4DA8422F
:1032300004D14D6922F4802242EA8522426043652E
:103240004968C1650462F0BD00000140FF8FFFFEC8
:10325000000401400040014000440140004801409A
:1032600010B5036A046A23F00A0324F0010404621F
:1032700084690B4324F0F00141EA02118161036289
:1032800010BD10B5036A23F0100303628369046A5A
:1032900023F4704324F0A00443EA0232826144EA3A
:1032A0000111016210BD000030B5416EB9B1016875
:1032B0000D4B03F108048A688968C2F34262490F22
:1032C0005D5C615C2D01B5FBF1F1A0F86A10995CC1
:1032D000A25C0901B1FBF2F1A0F8681030BD012138
:1032E000A0F86A10F8E70000343B000890F82810B6
:1032F000C90706D00168C36A4A6822F400321A433B
:103300004A6090F82810890706D50168036B4A685F
:1033100022F480321A434A6090F82810490706D5F3
:103320000168436B4A6822F480221A434A6090F88D
:103330002810090706D50168836B4A6822F4004209
:103340001A434A6090F82810C90606D50168C36B75
:103350008A6822F480521A438A6090F828108906FD
:1033600006D50168036C8A6822F400521A438A6009
:1033700090F82810490611D50168436C4A6822F478
:1033800080121A434A60416CB1F5801F06D1016872
:10339000836C4A6822F4C0021A434A6090F82810ED
:1033A000090606D50168C26C486820F40020104365
:1033B00048607047F8B500260446C0F88C60FDF7F9
:1033C00049F9054620686FF07E470068000708D578
:1033D00000222B464FF400112046009700F0F0F930
:1033E00060B92068006840070AD500222B464FF4D8
:1033F00080012046009700F0E3F908B10320F8BDF2
:103400002020C4F88400C4F88800E666002084F810
:103410008060F8BD2DE9F04304468068D84E87B03F
:10342000D84B2168D4E90427D4F81CC010430A689B
:10343000002547EA0C073843324002430A602068FF
:10344000E268416821F44051114341602268A1695A
:103450009A4201D0206A01439768DFF82CC3CB4E13
:10346000CB4807EA0C070F4397602168676ACA6A6E
:1034700022F00F023A43CA622268B2420ED10068BB
:1034800000F03800182873D047DCB8B3082879D08A
:1034900010286FD178E028287ED17BE0BD498A4290
:1034A00009D1006800F00700062875D2DFE800F0B7
:1034B000546A6C6E7072B8498A4209D1006800F093
:1034C0000700062868D2DFE800F0475D5F616365AA
:1034D000B2498A4209D1006800F0070006285BD291
:1034E000DFE800F03A5052545658AD498A420BD1A9
:1034F000006800F0070006284ED200E010E0DFE888
:1035000000F02B4143454749A6498A420AD1006849
:1035100000F03800182839D0B7DD2028BBD13CE0B6
:1035200001203AE0A0498A4209D1006800F0070072
:10353000062831D2DFE800F01026282A2C2E9B49DD
:103540008A420BD1006800F00700062824D2DFE889
:1035500000F003191B1D1F2100201EE09A421BD101
:103560008B48001D006800F00700062814D202E016
:103570000CE007E010E0DFE800F0030507090B0DA1
:1035800002200AE0042008E0082006E0102004E001
:10359000202002E0402000E080208549DFF81482EE
:1035A0009A42854A4FF400434FEA21174FF0000634
:1035B0004ED110281AD006DC022809D004280BD0DE
:1035C00008287CD10DE020283ED0402877D13DE06E
:1035D000FDF714F9014610E06846FDF721F901995D
:1035E0000BE003A8FDF7BEF9049906E01068800619
:1035F00005D51068C0F3C100C140002970D0606AD1
:10360000676838F8102007EB4703B1FBF2F08342FC
:1036100055D8B0EB073F52D8002308461946FCF7AF
:1036200057FE02467808130E120243EA01211018D1
:103630003A4671410023FCF74BFE604AA0F5407109
:1036400091423CD821688FE03946D8E71946D6E741
:10365000D4F81CC04FF6EF799C4546D1082819D004
:1036600005DC58B101280CD0042875D10DE01028D4
:1036700015D0202835D040286ED134E0FDF7CEFF9C
:1036800001E0FDF7DDFF014610E06846FDF7C8F8F0
:1036900001990BE003A8FDF765F9049906E01068AD
:1036A000800604D51068C0F3C100C140C1B1636A8F
:1036B000606838F81330B1FBF3F1490000E04BE0EB
:1036C00001EB5001B1FBF0F0A0F11001494543D8E6
:1036D0004FF6F0732168C0F342021840104343E0F4
:1036E00043E03946E3E71946E1E7082819D005DC4D
:1036F00058B101280CD004282ED10DE0102815D087
:1037000020282BD0402827D12AE0FDF787FF01E0B1
:10371000FDF796FF014610E06846FDF781F8019934
:103720000BE003A8FDF71EF9049906E01068800677
:1037300004D51068C0F3C100C140B1B1636A6068CC
:1037400038F81330B1FBF3F101EB5001B1FBF0F0AD
:10375000A0F11001494505D9012506E03946EDE7FC
:103760001946EBE7216880B2C8600120A4F86A001E
:10377000A4F8680028462667666707B0BDE8F083AE
:10378000F369FFCF000C0058FFF4FF110010014057
:10379000544402580044004000480040004C00409F
:1037A000005000400014014000780040007C0040C0
:1037B0000090D0031C3B000800440258FFFC0F009F
:1037C0002DE9F0479A4617460E460446089D4FF0ED
:1037D00000094FF020084CE0681C4AD0FCF73AFF83
:1037E000A0EB0A00A8422AD84DB320680168490717
:1037F0003FD5C069C04300053BD421684FF4006049
:103800000862216851E8000F20F4D07041E80002FE
:10381000002AF6D12068083050E8001F21F001018D
:1038200040E80012002AF5D1C4F8848084F8809022
:10383000C4F88880C4F88C800320BDE8F087206835
:1038400050E8001F21F4D07140E80012002AF6D1A0
:103850002068083050E8001F21F0010140E8001204
:10386000002AF5D1C4F8848084F88090C4F8888058
:10387000E2E72068C06936EA000004D00020B842C0
:10388000AAD00020D9E70120F9E7FEE70FB4054BE5
:1038900010B503A9044A029800F028F810BC5DF89E
:1038A00014FB0000A53A00081400002409070028B2
:1038B0004FEA116104DB00F1E02080F8001470474A
:1038C00000F00F0000F1E02080F8141D704702E0C6
:1038D00008C8121F08C1002AFAD17047704700209B
:1038E00001E001C1121F002AFBD170472DE9FF4FF3
:1038F0008BB09A460F460546002606E025280BD0D9
:1039000052460D9990476D1C761C28780028F5D1F9
:103910000FB03046BDE8F08F0024A0460122604978
:1039200000E0044315F8013F203B02FA03F008428F
:10393000F7D128782E2817D115F8010F44F0040488
:103940002A280ED06FF02F022878A0F13001092923
:103950000AD808EB880102EB410100EB01086D1C5D
:10396000F2E757F8048B6D1C287869283ED006DCF6
:103970000028CDD063280BD0642804D136E073280A
:1039800010D075284BD052460D999047761C85E093
:1039900017F8040B8DF8000000208DF80100E946AF
:1039A000012003E057F8049B4FF0FF3061074FF010
:1039B000000401D40AE0641C44450DDA8442FADBB9
:1039C00019F804100029F6D106E0641C8442FCDBDF
:1039D00019F804100029F8D1264404E019F8010B65
:1039E00052460D999047641EF8D257E001CF4FF030
:1039F0000A0B002802DA40422D2102E0210504D5FD
:103A00002B218DF82410012103E0E10705D02021AE
:103A1000F7E70DF1200908910CE00021F9E701CF4B
:103A20004FF00A0BF9E75946FCF795FC01F130021B
:103A300009F8012D0028F6D1ADEB090000F1200BAB
:103A4000600701D44FF00108D84502DDA8EB0B0058
:103A500000E000208046002406E009A85246005DF0
:103A60000D999047641C761C08988442F5DB04E0AD
:103A7000302052460D999047761CB8F10001A8F10C
:103A80000108F5DC05E019F8010B52460D99904745
:103A9000761CBBF10001ABF1010BF4DC6D1C34E7CB
:103AA0000928010013B50448052301226946FEF7E1
:103AB0009DFE00981CBD000018000024FCF7D8FDF6
:103AC000FFF7EEF8FEF7F2FEFEF716FFFEF748FFEF
:103AD00009A10BA0FFF7DAFE6420FCF787FC0A4877
:103AE000FEF704FA08480021FEF7E2FC064804212C
:103AF000FEF7DEFCFEE7000068656C6C6F000000FE
:103B000025730D0A00000000A8000024000000003A
:103B10000102030401020304060708090100020070
:103B20000400060008000A000C00100020004000FD
:103B300080000001010101030701000008040204E4
:103B400008010101643B0008000000241800000087
:103B5000CE3800087C3B000818000024E004000078
:103B6000DE3800080090D0030090D0030100000070
:0C3B700010000000000000000000000039
:040000050800029954
:00000001FF
