:020000040800F2
:10000000F8040024AD02000807250008DB230008DF
:1000100005250008B9030008FB2F000800000000B8
:100020000000000000000000000000004D27000854
:10003000BB03000800000000092500084F27000846
:10004000C7020008C7020008C7020008C70200086C
:10005000C7020008C7020008C7020008C70200085C
:10006000C7020008C7020008C7020008C70200084C
:10007000C7020008C7020008C7020008C70200083C
:10008000C7020008C7020008C7020008C70200082C
:10009000C7020008C7020008C7020008C70200081C
:1000A000C7020008C1280008C7020008C7020008EC
:1000B000C7020008C7020008C7020008C7020008FC
:1000C000C7020008C7020008C7020008C7020008EC
:1000D000C7020008C7020008C7020008C7020008DC
:1000E000C7020008C702000800000000C70200089D
:1000F000C7020008C7020008C7020008C7020008BC
:10010000C7020008C7020008C7020008C7020008AB
:10011000C7020008C7020008C7020008C70200089B
:10012000C7020008C7020008C7020008C70200088B
:10013000C7020008C7020008C7020008C70200087B
:1001400000000000000000000000000000000000AF
:10015000C7020008C7020008C7020008C70200085B
:10016000C7020008C7020008C7020008C70200084B
:10017000C7020008C7020008C7020008C70200083B
:10018000C7020008C7020008C7020008C70200082B
:10019000C7020008C7020008C7020008C70200081B
:1001A000C7020008C7020008C7020008C70200080B
:1001B000C7020008C7020008C7020008C7020008FB
:1001C000C7020008C7020008C7020008C7020008EB
:1001D000C7020008C7020008C7020008C7020008DB
:1001E000C7020008C7020008C7020008C7020008CB
:1001F000C7020008C7020008C7020008C7020008BB
:10020000C7020008C7020008C7020008C7020008AA
:10021000C7020008C7020008C7020008C70200089A
:10022000C7020008C7020008C7020008000000005B
:10023000C7020008C702000800000000C70200084B
:10024000C7020008C7020008C7020008C70200086A
:10025000C7020008C7020008C7020008C70200085A
:10026000C7020008C7020008C7020008C70200084A
:10027000C7020008C7020008C7020008000000000B
:10028000C7020008C7020008C702000800000000FB
:1002900000000000C7020008DFF80CD000F07AF878
:1002A000004800474D310008F80400240648804704
:1002B00006480047FEE7FEE7FEE7FEE7FEE7FEE74B
:1002C000FEE7FEE7FEE7FEE7E527000899020008E3
:1002D0002DE9F05F0546002092469B46884606467B
:1002E000814640241BE0284641464746224600F00E
:1002F00041F853465A46C01A914110D31146184648
:10030000224600F028F82D1A67EB01084F462246D6
:100310000120002100F01FF817EB00094E41201EBC
:10032000A4F10104DFDC484631462A464346BDE8D5
:10033000F09FD2B201E000F8012B491EFBD27047BA
:100340000022F6E710B513460A4604461946FFF7A1
:10035000F0FF204610BD202A04DB203A00FA02F10B
:10036000002070479140C2F1200320FA03F31943A3
:1003700090407047202A04DB203A21FA02F0002145
:10038000704721FA02F3D040C2F1200291400843A5
:1003900019467047064C074D06E0E06840F001033F
:1003A00094E8070098471034AC42F6D3FFF778FF83
:1003B000C4310008E4310008FEE7704772B6FEE77A
:1003C00070B5044600F02AF90546601C02D00448C6
:1003D0000078044400F022F9401BA042FAD370BD1B
:1003E000080000242DE9F84F03247D4D00234FF031
:1003F00001094FF0B04B4FF00F0AE9E009FA03F79B
:100400003A4076D00E7906F00306012E01D0022E76
:1004100018D1D0F808C04FEA430ECE6804FA0EF89F
:100420002CEA080C06FA0EF646EA0C068660D0F8AE
:1004300004C00E792CEA070CC6F300169E4046EA6B
:100440000C0646600E79F643B6070BD0C6684FEA35
:1004500043088F6804FA08FC26EA0C0607FA08F736
:100460003743C7600E7906F00306022E12D1DE086C
:100470000F694FEA437C00EB8606B646366A4FEAC0
:10048000DC6C0AFA0CF807FA0CF726EA0806374380
:10049000CEF820700F7906684FEA430807F003078B
:1004A00004FA08FC07FA08F726EA0C063743076047
:1004B0004E6816F4403F1CD04A4E376847F002079A
:1004C000376036689F0706F00206009623F00306A1
:1004D00006F1B046B6463F0FD6F80864DFF808814B
:1004E0000AFA07FC404526EA0C0603D14FF0000C3F
:1004F00041E06CE0DFF8F4C0604502D14FF0010C40
:1005000039E0DFF8ECC0604502D14FF0020C32E078
:10051000DFF8E0C0604502D14FF0030C2BE0DFF8BC
:10052000D8C0604502D14FF0040C24E0DFF8CCC005
:10053000604502D14FF0050C1DE0DFF8C4C06045F6
:1005400002D14FF0060C16E0DFF8B8C0604502D1CA
:100550004FF0070C0FE0DFF8B0C0604502D14FF05C
:10056000080C08E0DFF8A4C0604502D14FF0090C88
:1005700001E04FF00A0C0CFA07FC4CEA060CCEF82E
:1005800008C44F68DBF80060FF0226EA020600D5C7
:1005900016435F46CBF80060D1F804C0DBF8046076
:1005A0005FEA8C2C26EA020600D516437E606E6850
:1005B0004F6826EA0206BF0300D516436E602E6818
:1005C0004F6826EA0206FF0300D516432E605B1C27
:1005D0000A6832FA03F67FF411AFBDE8F88F000025
:1005E00080000058F44402580000025800040258E9
:1005F00000080258000C025800100258001402585B
:1006000000180258001C025800200258002402580A
:1006100001480068000C70470010005C01488068C9
:1006200070470000080000240248816802781144E5
:100630008160704708000024032010B500F086F8A0
:1006400000F0F4FF0F4A104914681368C4F3032242
:1006500003F00F038A5CC95C02F01F0201F01F0166
:10066000D0400A4A20FA01F11160094908600F20C0
:1006700000F010F808B1012010BD00F02BF80020A8
:1006800010BD0000184402588C31000804000024FA
:100690000000002470B50D4D04462878A0B14FF439
:1006A0007A71B1FBF0F00A490968B1FBF0F001F092
:1006B000F1FA48B9102C07D200222146501E00F052
:1006C00025F800206C6070BD012070BD080000247A
:1006D00000000024054808B5016841F002010160EE
:1006E000006800F00200009008BD0000F4440258C9
:1006F000002809DB410900F01F028900012001F1F7
:10070000E0219040C1F80001704700000E4BF0B4AA
:100710001B680D46C3F30223C3F10706042E00D95C
:100720000426191D072901D2002300E0DB1E012445
:1007300004FA06F19C40491E2940641E9940144069
:100740002143F0BC02F06ABC0CED00E0064900F069
:10075000070210B54FF6FF040868044B204040EA3A
:1007600002201843086010BD0CED00E00000FA05FF
:10077000134970B50A68D243520705D5096801F0DC
:100780000701814213D118E00A6822F007020243F0
:100790000A60FFF743FF0A4D4FF47A760446083D9E
:1007A00007E000BFFFF73AFF001BB04201D901206C
:1007B00070BD2868C0438004F4D4002070BD0000E0
:1007C0000C48025810B500F0EBFE05490968054ACF
:1007D000C1F30211515C01F01F01C84010BD0000BF
:1007E000204402588C310008494930B5484C0B1D53
:1007F0000A68143409681D68246802F00303C5F30D
:100800000012C1F30531C4F3CC04002914FB02F239
:1008100000EE102AF8EE400A75D03F4A9FED3D1ACF
:10082000B7EE000A6BB1DFED3D1A012B01D0022BB0
:1008300064D002EE101A1168F8EE422A81EEA22A64
:1008400021E0334C283C23689B0612D5344B2468A6
:1008500001EE901A1168C4F3C104F8EE612AE34076
:1008600001EE903AC1F30801F8EE611A81EEA22A76
:100870000BE001EE901ADFED2B2A00BFF8EE611AB3
:10088000116882EEA12AC1F3080101EE901A1168E5
:10089000F8EE611A40EE811A71EE800A62EE200ACB
:1008A000C1F3462101EE101AB8EE411A31EE001ADA
:1008B000C0EE811ABCEEE11A80ED001A1168C1F396
:1008C000064101EE101AB8EE411A31EE001AC0EEE0
:1008D000811ABCEEE11A80ED011A1168C1F30661BC
:1008E00001EE101AB8EE411A31EE000A80EE801ABD
:1008F000BCEEC10A80ED020A30BD04E001EE901AA0
:10090000DFED092ABAE70021016041608160F3E769
:100910002844025800000039384402580024744A20
:100920000090D0030024744C20BCBE4B494930B524
:10093000484C0B1D0A681C3409681D68246802F0C5
:100940000303C5F30022C1F30551C4F3CC0400290D
:1009500014FB02F200EE102AF8EE400A75D03F4A6E
:100960009FED3D1AB7EE000A6BB1DFED3D1A012B8A
:1009700001D0022B64D002EE101A1168F8EE422A60
:1009800081EEA22A21E0334C283C23689B0612D535
:10099000344B246801EE901A1168C4F3C104F8EED8
:1009A000612AE34001EE903AC1F30801F8EE611AC2
:1009B00081EEA22A0BE001EE901ADFED2B2A00BF98
:1009C000F8EE611A116882EEA12AC1F3080101EE66
:1009D000901A1168F8EE611A40EE811A71EE800AE1
:1009E00062EE200AC1F3462101EE101AB8EE411A58
:1009F00031EE001AC0EE811ABCEEE11A80ED001A49
:100A00001168C1F3064101EE101AB8EE411A31EE39
:100A1000001AC0EE811ABCEEE11A80ED011A1168CD
:100A2000C1F3066101EE101AB8EE411A31EE000A68
:100A300080EE801ABCEEC10A80ED020A30BD04E0EF
:100A400001EE901ADFED092ABAE70021016041604A
:100A50008160F3E7284402580000003940440258FE
:100A60000024744A0090D0030024744C20BCBE4B78
:100A70002DE9FC5F044650F8241B002500902E460B
:100A80000801FE4FDFF8F8831DD5606E50B1B0F558
:100A9000801F0CD0B0F5001F0ED0B0F5401F1DD048
:100AA00001250FE0386840F40030386016E002217C
:100AB000201D01F02BFD03E00098022101F0B6FD9E
:100AC00005000BD02E462088C00523D5606D052873
:100AD0001ED2DFE800F00C11161B1B00626ED8F866
:100AE000001021F440111143C8F80010EBE73868FA
:100AF00040F40030386009E00021201D01F006FDBF
:100B000003E00098002101F091FD05466DB100E081
:100B100001252E462088800528D5A06D80281ED06E
:100B20000CDC90B140280ED114E0626DD8F80010B2
:100B300021F007011143C8F80010EBE7C02813D0DB
:100B4000B0F5807F10D001250FE0386840F4003008
:100B5000386009E00021201D01F0D8FC03E0009876
:100B6000002101F063FD054695B12E462088DFF88F
:100B70001093400509F108092CD5D4F8A400B0F56C
:100B8000800F20D00DDCA0B1B0F5001F0FD115E013
:100B9000A26DD8F8001021F4E0711143C8F80010DC
:100BA000E4E7B0F5C00F13D0B0F5000F10D0012569
:100BB0000FE0386840F40030386009E00021201D63
:100BC00001F0A4FC03E00098002101F02FFD054690
:100BD00075B12E46208800052DD5D4F8A800B0F1B7
:100BE000007F21D00EDCA8B1B0F1807F10D116E0DB
:100BF000D4F8A420D9F8001021F460011143C9F8F9
:100C00000010E7E7B0F1407F13D0B0F1806F10D053
:100C100001250FE0386840F40030386009E0002119
:100C2000201D01F073FC03E00098002101F0FEFCA0
:100C300005466DB12E46206880011FD5A06CD8B145
:100C400010280FD0202812D0302815D0012514E00C
:100C5000D4F8A820D9F8001021F0E0611143C9F8B8
:100C60000010E8E7386840F40030386004E0022102
:100C7000201D01F04BFC05466DB12E462088C004B6
:100C80002BD5E06DB0F5005F20D00DDCA0B1B0F544
:100C9000805F0FD115E07A48A26C001F016821F037
:100CA000300111430160E9E7B0F5405F13D0B0F5C2
:100CB000804F10D001250FE0386840F400303860D4
:100CC00009E00021201D01F021FC03E00098002133
:100CD00001F0ACFC054685B12E462088800429D55C
:100CE000206EB0F5403F23D010DC08B3B0F5803F54
:100CF00014D0B0F5003F0FD115E0E26DD8F8001028
:100D000021F4E0411143C8F80010E6E7B0F5802F68
:100D10000ED0B0F5A02F0BD001250AE00121201D37
:100D200001F0F4FB03E00098012101F07FFC05468F
:100D30008DB12E46208840042AD5D4F8AC00B0F1FD
:100D4000405F23D010DC08B3B0F1805F14D0B0F165
:100D5000005F0FD115E0226ED8F8001021F4E021D9
:100D60001143C8F80010E5E7B0F1804F0ED0B0F1A4
:100D7000A04F0BD001250AE00121201D01F0C6FB88
:100D800003E00098012101F051FC05466DB12E46AB
:100D9000208800041FD5E06ED8B1B0F1805F0ED07E
:100DA000B0F1005F10D0012514E0D4F8AC20D9F8E0
:100DB000001021F0E0411143C9F80010E8E738685D
:100DC00040F40030386004E00121201D01F09EFB5A
:100DD00005466DB12E462068C0011ED5606CD0B1AD
:100DE00001280ED0022811D0032814D0012513E0C9
:100DF000E26ED8F8001021F040511143C8F80010FD
:100E0000E9E7386840F40030386004E00221201D32
:100E100001F07CFB054685B12E462068DFF85CB00A
:100E20004002ABF11C0B57D51648016841F48071A4
:100E30000160FFF7F3FB82460EE01148626C001F71
:100E4000016821F0030111430160E6E7FFF7E6FBCB
:100E5000A0EB0A0064283DD80A480068C005F5D513
:100E60007DBBDFF81CA0B4F8B0200AF1200ADAF844
:100E7000001002F4407001F4407105E02C44025867
:100E80005044025800480258814211D0DAF800104C
:100E9000DAF8002021F4407142F48032CAF80020D0
:100EA000DAF8002022F48032CAF80020CAF80010D4
:100EB000D4F8B000B0F5807F21D1FFF7AFFB0190EF
:100EC00019E008E0FFF7AAFB0199411A41F28830C6
:100ED000814210D903252E462078DFF844A4C007AC
:100EE0003DD0A06F182838D026DC80B3082829D040
:100EF000102825D12CE0DAF800008007E2D5D4F8DC
:100F0000B010C1F30120032858460DD0016821F428
:100F10007C510160B4F8B020DAF80010C2F30B0283
:100F20001143CAF80010D7E7FE4A036802EA11121B
:100F300023F47C511143ECE720280ED028280CD054
:100F400001250BE00121201D01F0E0FA04E004E09E
:100F50000098012101F06AFB05465DB12E4620781C
:100F600080071ED5606F062819D2DFE800F0160C46
:100F700011161616A26FDAF8001021F0380111438D
:100F8000CAF80010EBE70121201D01F0BFFA03E0D1
:100F90000098012101F04AFB054675B100E00125EA
:100FA0002E46207840071FD5D4F89000062819D285
:100FB000DFE800F0160C11161616626FDAF8001052
:100FC00021F007011143CAF80010EAE70121201DB2
:100FD00001F09CFA03E00098012101F027FB05468F
:100FE0009DB100E001252E46207880062BD5D4F84F
:100FF0008C00B0F1405F24D011DC10B3B0F1805F01
:1010000015D0B0F1005F10D116E0D4F89020D9F8D7
:10101000001021F007011143C9F80010E4E7B0F116
:10102000804F0ED0B0F1A04F0BD001250AE0002177
:10103000201D01F06BFA03E00098022101F0F6FA9E
:1010400005468DB12E46207840062BD5D4F8980061
:10105000B0F5406F24D011DC10B3B0F5806F15D01F
:10106000B0F5006F10D116E0D4F88C20DAF800103B
:1010700021F0E0411143CAF80010E4E7B0F5805FC9
:101080000ED0B0F5A05F0BD001250AE00021201D95
:1010900001F03CFA03E00098022101F0C7FA05468E
:1010A0008DB12E46207800062BD5D4F89C00B0F5E3
:1010B000C04F24D011DC10B3B0F5005F15D0B0F5EF
:1010C000804F10D116E0D4F89820D9F8001021F400
:1010D000E0511143C9F80010E4E7B0F5004F0ED01D
:1010E000B0F5204F0BD001250AE00021201D01F0B2
:1010F0000DFA03E00098022101F098FA05464DB17F
:101100002E46207800071ED5D4F88000B0F5805F09
:101110000AD00FE0D4F89C20D9F8001021F46041E7
:101120001143C9F80010ECE70098022101F07EFAA3
:1011300000B10126D4F88020DAF8001021F44051E3
:101140001143CAF800102078C00613D5D4F89400D3
:10115000B0F5807F05D10098022101F067FA00B157
:101160000126D4F89420D9F8001021F440711143DD
:10117000C9F800102068000316D5D4F8A00038B1D3
:10118000B0F5803F09D0B0F5003F0BD001250AE053
:101190000021201D01F0BAF903E00098022101F0BE
:1011A00045FA054685B12E462068400322D5D4F87D
:1011B0008400B0F5801F11D0B0F5001F13D0B0F53A
:1011C000401F15D0012514E0D4F8A020D9F8001054
:1011D00021F440311143C9F80010E5E7386840F4C4
:1011E0000030386004E00098012101F01FFA054644
:1011F00055B12E462068C0031CD5E06C70B1B0F527
:10120000803F10D0012514E0D4F88420DAF80010D3
:1012100021F440111143CAF80010EBE7386840F49C
:101220000030386004E00221201D01F06FF905460E
:10123000CDB12E462068800005D50098022101F02E
:10124000F5F900B10126206880031BD5E06FB8B125
:10125000B0F5807F10D0B0F5007F11D0B0F5407FA1
:101260000ED001250DE02E48E26C0838016821F40B
:10127000803111430160DDE7386840F400303860A8
:10128000F5B32E462068C00207D5226FD8F80010AB
:1012900021F000411143C8F800102068C00008D5B3
:1012A000D4F8B420DBF8001021F480411143CBF8CE
:1012B00000102068800207D5A26ED8F8001021F037
:1012C00080711143C8F80010206840000CD5DBF88D
:1012D000001021F40041CBF80010DBF80010D4F826
:1012E000B8201143CBF800102068002807DA0C481A
:1012F000226D0838016821F040511143016000E07F
:1013000014E02068000208D5D4F88820DAF800102C
:1013100021F440011143CAF8001086B1012003E016
:1013200054440258CFFFFF00BDE8FC9FE26FDAF89B
:10133000001021F440711143CAF80010A2E7002008
:10134000EDE700002DE9F05F04000F467ED0DFF8E6
:101350003882D8F8000000F00F00B8420CD2D8F85C
:10136000001021F00F013943C8F80010D8F8000030
:1013700000F00F00B84269D12078844D40070AD5AB
:101380002069296801F07001884204D9296821F098
:1013900070010143296020787C4E361D00070AD574
:1013A0006069316801F07001884204D9316821F028
:1013B0007001014331602078C0060AD5A069316808
:1013C00001F4E061884204D9316821F4E06101430D
:1013D00031602078DFF8B4B180060BF1080B0CD532
:1013E000E1695846DBF8002002F07002914204D90E
:1013F000026822F070020A430260207880070AD552
:10140000E068296801F00F01884204D9296821F0B9
:101410000F01014329602078C0073ED05B49A268D4
:101420002868183920F4706010432860606802282A
:1014300018D0032819D00968012819D049070029B4
:101440004ADADFF848A1AAF1080A00E044E0DAF835
:10145000002022F007020243CAF80020FFF7DEF85E
:10146000814612E009688903E9E709688901E6E72E
:10147000C905E4E7FFF7D2F8A0EB090141F2883093
:10148000814202D90320BDE8F09F6168DAF80000CC
:1014900000F03800B0EBC10FECD1207880070AD5FE
:1014A000E068296801F00F01884204D2296821F020
:1014B0000F0101432960D8F80010404601F00F01E8
:1014C000B9420BD9016821F00F013943016000686E
:1014D00000F00F00B84201D00120D4E72078400787
:1014E0000AD52069296801F07001884204D2296870
:1014F00021F0700101432960207800070AD5606956
:10150000316801F07001884204D2316821F0700125
:10151000014331602078C0060AD5A069316801F422
:10152000E061884204D2316821F4E0610143316016
:10153000207880060CD5E1695846DBF8002002F0DF
:101540007002914204D2026822F070020A430260E3
:1015500000F06CF80E492A682B68C2F3032203F0EE
:101560000F038A5CC95C02F01F0201F01F01D0402A
:10157000084A20FA01F1116007490860074800682D
:10158000BDE8F05FFFF786B800200052184402580B
:101590008C31000804000024000000240C0000240A
:1015A00030B500F043F80B4A0B490C4B1568146832
:1015B000C5F3032204F00F048A5C095D02F01F02E8
:1015C00001F01F01D040064A20FA01F119601060B5
:1015D000084630BD184402588C310008040000242D
:1015E0000000002400B5FFF7DBFF05490968054A44
:1015F000C1F30211515C01F01F01C84000BD0000A1
:101600001C4402588C31000800B5FFF7C9FF05499A
:101610000968054AC1F30221515C01F01F01C8406D
:1016200000BD00001C4402588C310008454970B5CB
:1016300045480968434B103B11F0380208D00111AE
:10164000082A03D0102A0BD0182A0BD0084670BDE8
:1016500019688906FBD51968C1F3C101C84070BD7E
:101660003A4870BD3749374D18310C1D24350A688A
:10167000096826682D6802F0030406F00102C1F330
:101680000511C5F3CC0515FB02F200EE102AB8EEE9
:10169000400AE9B32F4ADFED2E0AB7EE001A6CB10B
:1016A000DFED2D1A012C01D0022C43D002EE101ACE
:1016B0001068F8EE422A81EEA22A1EE01C68A406F9
:1016C00011D51B6801EE901A1168C3F3C103F8EE3F
:1016D000612AD84001EE900AC1F30800F8EE611AC1
:1016E00081EEA22A0BE001EE901ADFED1C2A00BF6A
:1016F000F8EE611A106882EEA12AC0F3080001EE2C
:10170000900AF8EE611A40EE201A31EE810A00E0EC
:1017100015E022EE000A1068C0F34620401C00EEDF
:10172000900AF8EE600A80EE201ABCEEC10A10EEB4
:10173000100A70BD01EE901ADFED092AD8E70020EB
:1017400070BD0000104402580090D00340787D0125
:1017500000000039304402580024744A0024744CBC
:1017600020BCBE4B2DE9F05F04007DD0FF4F2078F8
:10177000FE4D1837DFF8F493103DC00748D0D9F874
:101780000000396800F03800102815D0182803D15F
:1017900001F0030002280FD06068B0F5803F12D03E
:1017A00010B1B0F5A02F18D0286820F48030286040
:1017B000286820F4802009E02868800328D5606824
:1017C0000028D2D024E0286840F480302860606887
:1017D00088B1FEF723FF064609E0286840F4802020
:1017E0002860F0E7FEF71AFF801B64286FD828688E
:1017F0008003F7D50CE0FEF711FF064605E000BFB9
:10180000FEF70CFF801B6428F0D828688003F7D40B
:10181000207841F20308D54E0C3E800769D5D9F8EF
:101820000000396810F038000ED0182801D1880760
:101830000AD0E06890B3296821F0190101432960BA
:10184000FEF7ECFE824631E02868400702D5E068EA
:1018500000288AD0E168286820F019000843286031
:10186000FEF7DCFE824607E0DFE000BFFEF7D6FEB3
:10187000A0EB0A000228B9D828684007F6D500BFB7
:10188000FEF7C6FE40451BD82069402812D03168BB
:1018900021F47C3141EA003030602AE018E000BFDA
:1018A000FEF7BCFEA0EB0A0002289FD8286840077C
:1018B000F6D5E5E7306820F47C3040F40030EBE703
:1018C000207C316821F0FE4141EA0060E4E70DE14F
:1018D000286820F001002860FEF7A0FE824605E09F
:1018E000FEF79CFEA0EB0A0002288DD8286840076E
:1018F000F6D42078C0065DD5D9F80000DFF86CB2C8
:10190000396800F03800ABF1040B082810D0182813
:1019100003D101F0030001280AD0E06900282868FB
:1019200038D040F080002860FEF778FE824623E041
:101930002868C00523D5E069802876D11FE0206A99
:10194000202821D0316821F0F84141EA80603060E0
:1019500030E000BF94F82010DBF8002022F07C5229
:1019600042EA0161CBF8001024E000BFFEF756FE0A
:10197000A0EB0A00022898D82868C005F6D5FEF723
:1019800047FE4045E6D8DAE7306820F0F84040F0FE
:101990008040DCE720F080002860FEF73FFE06462E
:1019A00005E000BFFEF73AFE801B02289DD828689C
:1019B000C005F7D42078000729D56C4861696430E8
:1019C00000298046016811D041F001010160FEF755
:1019D00025FE064605E000BFFEF720FE801B02281C
:1019E000C9D8D8F800008007F6D510E021F0010131
:1019F0000160FEF713FE064605E000BFFEF70EFE8F
:101A0000801B022872D8D8F800008007F6D420780E
:101A1000800623D5A0690028286810D040F48050A3
:101A20002860FEF7FBFD064605E02CE1FEF7F6FD1B
:101A3000801B02285AD828688004F7D50EE020F4CD
:101A400080502860FEF7EAFD064604E0FEF7E6FD5A
:101A5000801B02284AD828688004F7D420784007E1
:101A60004FD5DFF80C81D8F8001041F48071C8F828
:101A70000010FEF7D3FD064605E000BFFEF7CEFDE1
:101A8000801B642832D8D8F80000C005F6D5374E40
:101A9000A068603601280AD008B1052813D0306844
:101AA00020F001003060306820F0040002E030686F
:101AB00040F001003060A06841F2883A90B1FEF732
:101AC000ADFD80460AE0306840F004003060EEE78B
:101AD000FEF7A4FDA0EB0801514507D83068800748
:101AE000F6D50EE0FEF79AFD804607E084E000BFE1
:101AF000FEF794FDA0EB080151457DD830688007C2
:101B0000F6D4606AB0B3DFF86480D9F8001008F149
:101B10002008C1F3C20103296FD00228286820F0F1
:101B20008070286003D0FEF779FD044680E0FEF760
:101B300075FD064605E000BFFEF770FD801B02281C
:101B400073D828688001F7D4E26A40F2F33138682C
:101B500054F8283F884340EA021018433860217B3C
:101B60004FF4FE0C22894FF0FE4704E01044025867
:101B70000048025889E0208A4902521E267DA1F5BC
:101B8000007189B2401EC2F308021143761E0CEAAE
:101B9000004001433E4807EA066211433C4AC8F848
:101BA00000100832016821F00101016011684FF650
:101BB000F876236AB14341EAC30111600168A26962
:101BC00021F00C01114301600168E26921F002017A
:101BD00011430160016841F480310160016841F402
:101BE00000310160016841F480210160016841F029
:101BF00001010160286801E017E01DE040F08070FD
:101C00002860FEF70BFD044605E000BFFEF706FD69
:101C1000001B022809D828688001F7D535E000BFED
:101C2000FEF7FCFC001B022802D90320BDE8F09F50
:101C300028688001F4D428E039680128D8F8000029
:101C400021D0A26A01F0030393421CD1E26AC1F3DE
:101C500005118A4217D1216BC0F30802491E8A423E
:101C600011D1616BC0F34622491E91420BD1A16B89
:101C7000C0F30642491E914205D1E16BC0F30660F4
:101C8000491E814201D00120D0E70020CEE70000AC
:101C90002C440258401EB0F1807F10B501D30120C2
:101CA00010BD4FF0E02460610F21601701F0B6F91C
:101CB0000020A0610721216110BD70477047704767
:101CC000F0B590F83C20012A3BD01F4E012480F84B
:101CD0003C40022280F83D2002681C4D5368B2420D
:101CE000D2F808C001D0AA4203D14F6823F4700390
:101CF0003B430F6823F070031F4357600268B242F2
:101D000013D0B2F1804F10D0114B9A420DD0114B2D
:101D10009A420AD0104B9A4207D0AA4205D00F4BE4
:101D20009A4202D00E4B9A4204D189682CF080036B
:101D300019439160002180F83D4080F83C1008462E
:101D4000F0BD0220F0BD0000000001400004014091
:101D50000004004000080040000C00400018004053
:101D60000040014010B5040003D094F83D0010B1CC
:101D700007E0012010BD002084F83C00204600F060
:101D800023F8022084F83D002068211D00F0AAFD00
:101D9000012084F8480084F83E0084F83F0084F86D
:101DA000400084F8410084F8420084F8430084F83D
:101DB000440084F8450084F8460084F8470084F81D
:101DC0003D00002010BD000010B586B0044614216F
:101DD0006846FEF7B5FA17492068884227D11648A9
:101DE000016841F001010160006800F00100059008
:101DF00011481038016841F01001016000680123AA
:101E0000802100F010000590002000910222694618
:101E1000CDE90120CDE903030848FEF7E3FA0022EB
:101E200001211920FEF772FC1920FEF761FC06B0B3
:101E300010BD000000000140F0440258001002589C
:101E400090F83D10012901D001207047174A022166
:101E500080F83D100168CB6843F00103CB60006857
:101E6000904214D0B0F1804F11D0114988420ED069
:101E7000104988420BD01049884208D00F49884247
:101E800005D00F49884202D00E49884207D18168A7
:101E90000D4A1140062906D0B1F5803F03D00168F4
:101EA00041F0010101600020704700000000014086
:101EB0000004004000080040000C00400004014005
:101EC00000180040004001400700010070B50446C2
:101ED00090F83C000025012814D03A4B012684F8E4
:101EE0003C60022084F83D0022689068184020F48D
:101EF0007F409060086870282FD010DC10F00F0F22
:101F000003D022E04FF0020070BD4FEA2012072AF2
:101F10001BD2DFE802F0535353534B394100B0F169
:101F2000101F4BD009DCB0F5805F0FD0B0F5005F1B
:101F30001ED0B0F5801F08D140E0A0F580112039F7
:101F40003CD010293AD0202938D0012584F83D60B2
:101F5000002084F83C00284670BD4A682068D1E91A
:101F6000021300F021FD2068816841F0770109E04B
:101F70004A682068D1E9021300F016FD20688168E4
:101F800041F480418160E1E7CA684968206800F057
:101F90001FFD2068502106E0CA684968206800F0EB
:101FA00028FD2068602100F009FDCFE7CA68496874
:101FB000206800F00DFD20684021F4E7226801460A
:101FC0001046F0E788FFCEFF704770B50446006802
:101FD00000250169C943890715D4C168C943890728
:101FE00011D4EA1E026101212177206880698007EF
:101FF000204602D0FFF7E8FF04E000F0A7F82046F3
:1020000000F0A5F8257720680169C943490717D46E
:10201000C168C943490713D402216FF00402026169
:1020200021772068806910F4407F204602D0FFF7B6
:10203000CBFF04E000F08AF8204600F088F825770E
:1020400020680169C943090716D4C168C943090753
:1020500012D404216FF00802026121772068C06960
:102060008007204602D0FFF7AFFF04E000F06EF8D3
:10207000204600F06CF8257720680169C943C9063D
:1020800017D4C168C943C90613D408216FF01002E0
:10209000026121772068C06910F4407F204602D099
:1020A000FFF792FF04E000F051F8204600F04FF8EF
:1020B000257720680169C943C90708D1C168C943A8
:1020C000C90704D1891E0161204600F041F820684B
:1020D0000169C943090609D4C168C943090605D481
:1020E0006FF0800101612046FFF7E8FD206801697B
:1020F000C943C90509D4C168C943090605D46FF4A9
:10210000807101612046FFF7D8FD20680169C9434D
:10211000490609D4C168C943490605D46FF0400196
:102120000161204600F015F820680169C94389065D
:102130000BD4C168C943890607D46FF0200101613F
:102140002046BDE87040FFF7BABD70BD70477047CC
:102150007047704730B590F88010012918D00122DF
:1021600080F880202421C0F884100022202450F818
:10217000641B0B680D6823F0005325F001050D600A
:10218000026050F8641C0B6004620277104630BD98
:10219000022030BD70B5044690F8800001281DD0A3
:1021A000012284F880202420C4F884002068056877
:1021B000026822F0010202602068826822F06062F8
:1021C0000A438260204600F027FC2268202100207C
:1021D0001560C4F8841084F8800070BD022070BDC2
:1021E00070B5044690F8800001281DD0012284F8C3
:1021F00080202420C4F8840020680568026822F04A
:10220000010202602068826822F060420A43826014
:10221000204600F001FC2268202100201560C4F84F
:10222000841084F8800070BD022070BD10B50400D9
:1022300003D0D4F8840010B107E0012010BD0020C5
:1022400084F88000204600F027F82420C4F8840099
:102250002068016821F001010160204600F092FC35
:102260000128EBD0A06A10B1204600F0F7FB2068EF
:10227000416821F4904141602068816821F02A0181
:1022800081602068016841F0010101602046BDE8DD
:10229000104000F047BC000010B5B6B00446142151
:1022A0002FA8FEF74DF8BC216846FEF749F81849FB
:1022B0002068884229D10420009000246846249494
:1022C000FEF7D6FB08B1FEF779F81248016841F035
:1022D00008010160006800F0080034900D481438CF
:1022E000016841F00101016000682FAB022100F09C
:1022F000010034904FF4C060032283E813000648C5
:102300002FA9CDE93242FEF76DF836B010BD0000BE
:10231000000C0058F4440258000002582DE9F8431C
:102320000446D0F884001F4616460D46202852D198
:10233000DDB1D6B194F8800001284CD0012084F89A
:10234000800021224FF00008C4F88C80C4F884205B
:102350001834FEF763F9814654F8100CA687E68717
:10236000183CB0F5805F03D004E00120BDE8F8839D
:10237000206920B12E46002584F8808010E00026D8
:10238000FAE78021204600F0D3FDB8B9C6B116F8AF
:10239000010B21688862B4F85600401EA4F856006C
:1023A000B4F856004B464FF0000200970028E8D1E1
:1023B0004FF04001204600F0BBFD38B10320D5E7C7
:1023C00035F8020B2168C0F30800E3E72020C4F8C9
:1023D00084000020CAE70220C8E7FEE7114808B5DC
:1023E000016841F004010160016801F004010091FD
:1023F000016841F080010160016801F080010091F5
:10240000016841F010010160016801F010010091C4
:10241000016841F001010160006800F001000090D6
:1024200008BD0000E04402581848002110B5164CC1
:102430000C224FF4E1330460C0E90131C160C0E90E
:10244000041281610162416281624166FFF7EEFE22
:1024500008B1FDF7B3FF0D480021FFF7C1FE08B139
:10246000FDF7ACFF09480021FFF794FE08B1FDF726
:10247000A5FF0648FFF76EFE002803D0BDE8104018
:10248000FDF79CBF10BD0000000C00581800002490
:1024900030B587B01A48002418490A2200948025D4
:1024A00001944FF47A73029403940494059406946F
:1024B00080E81600C0E90334C0E90545FFF752FC87
:1024C00008B1FDF77BFF4FF400506946CDE90004E9
:1024D0000B4802940394FFF7F9FC08B1FDF76EFF77
:1024E000074804A9049405940694FFF7E9FB002823
:1024F00001D0FDF763FF07B030BD000000000140D0
:10250000A8000024FEE7FEE7704700002DE9F04731
:10251000454D044689464FF0000A2868C0438007AD
:102520000AD0414E283E306820F080603060FEF7CF
:1025300075F80746B04608E00120BDE8F08700BF07
:10254000FEF76CF8C01B022867D8D8F8000000011D
:10255000F6D4206829684FF4FE0721F47C313E024E
:1025600041EA00302860207AA389B4F804C0400210
:102570002D4D2D495B1E227CACF1010C1035091D3F
:10258000A0F5007080B2521ECCF3080C07EA03439A
:1025900040EA0C00184306EA02621043286008680B
:1025A000626920F0C000104308600A68A06922F048
:1025B000200202430A60281D0A6822F010020A6005
:1025C00002684FF6F873E4699A4342EAC402026073
:1025D0000868B9F1000F40F010020A6011D00868D5
:1025E000B9F1010F11D040F400100860D8F80000D4
:1025F000444640F08060C8F80000FEF70FF805463A
:102600000DE0086840F40020EFE740F48010ECE7AC
:10261000FEF704F8401B022801D903208DE720684B
:102620000001F5D5504688E7284402582DE9F047C7
:10263000454D044689464FF0000A2868C04380078C
:102640000AD0414E283E306820F080503060FDF7BF
:10265000E5FF0746B04608E00120BDE8F08700BF6F
:10266000FDF7DCFFC01B022867D8D8F80000800007
:10267000F6D4208829684FF4FE0721F07C713E02D1
:1026800041EA00502860207AA389B4F804C04002CF
:102690002D4D2D495B1E227CACF1010C1835091D16
:1026A000A0F5007080B2521ECCF3080C07EA034379
:1026B00040EA0C00184306EA0262104328600868EA
:1026C000626920F44060104308600A68A06922F43F
:1026D000007202430A60281D0A6822F480720A60B0
:1026E00002684FF6F873E4699A4342EAC402026052
:1026F0000868B9F1000F40F480720A6011D00868D0
:10270000B9F1010F11D040F080700860D8F80000D6
:10271000444640F08050C8F80000FDF77FFF0546B2
:102720000DE0086840F48000EFE740F40000ECE7BB
:10273000FDF774FF401B022801D903208DE72068B4
:102740008000F5D5504688E7284402587047FDF7C9
:102750006BBF000030B59DB04C216846FDF7F0FD21
:10276000202113A8FDF7ECFD0220FEF701F81B491C
:102770000A681B4822F001020A600968016821F416
:10278000404141F4804101600168002401F440416E
:102790001B9101688904FCD5402509940220009012
:1027A00001216846CDE90315FEF7DCFF08B172B6DA
:1027B000FEE73F20CDE913044FF480611594CDE985
:1027C000164513A81A94CDE918410121FEF7BAFD68
:1027D000002801D072B6FEE71DB030BD2C040058B1
:1027E000184802582C48F0B52C4A016841F4700191
:1027F0000160106800F00F00072804D2106820F074
:102800000F00C01D106026490020254C10340B68B5
:10281000244D43F001030B6020600B682B400B60DC
:10282000136803F00F03072B04D9136823F00F0379
:10283000DB1D13601A4C1C4A18341C4B261D371D17
:102840002060174C1A4D28343060261D3860371D23
:1028500023603B1D35601C1D3A60251D2E1D186030
:10286000331D22602860326018600A680C4B114CDE
:1028700022F4802260330A60186020686FF30F0032
:10288000B0F1005F03D20C490120C1F8080143F206
:10289000D2000A490860F0BD88ED00E00020005237
:1028A000004402587FEDF6EA8002010100020202B4
:1028B0000000FF010010005C008000510040005249
:1028C000044810B5FFF781FBBDE8104002A000F0FE
:1028D00095BB0000A80000243132333435360D0A90
:1028E000000000002DE9F047274B4FF0804A274DAC
:1028F00002689842264E274F274C09D0504507D0F2
:10290000A84205D0B04203D0B84201D0A04205D1C0
:10291000D1F804C022F070024CEA0202DFF87CC059
:10292000DFF87C809842DFF87C900FD050450DD0C6
:10293000A8420BD0B04209D0B84207D0A04205D07F
:10294000604503D0404501D0484503D1CD6822F40D
:1029500040722A434D6922F080022A430260984265
:102960008A68C2620A68826207D0A04205D06045C8
:1029700003D0404501D0484501D1096901630121D7
:102980004161BDE8F0870000000001400004004004
:1029900000080040000C00400004014000400140DD
:1029A000004401400048014042EA032283680A4390
:1029B00023F47F410A43826070470000034B826822
:1029C0001A400A4342F00701816070478FFFCFFF32
:1029D00010B5036A046A23F00A0324F001040462B8
:1029E00084690B4324F0F00141EA02118161036222
:1029F00010BD10B5036A23F0100303628369046AF3
:102A000023F4704324F0A00443EA0232826144EAD2
:102A10000111016210BD000030B5416EB9B101680D
:102A20000D4B03F108048A688968C2F34262490FBA
:102A30005D5C615C2D01B5FBF1F1A0F86A10995C59
:102A4000A25C0901B1FBF2F1A0F8681030BD0121D0
:102A5000A0F86A10F8E70000B431000890F82810D8
:102A6000C90706D00168C36A4A6822F400321A43D3
:102A70004A6090F82810890706D50168036B4A68F8
:102A800022F480321A434A6090F82810490706D58C
:102A90000168436B4A6822F480221A434A6090F826
:102AA0002810090706D50168836B4A6822F40042A2
:102AB0001A434A6090F82810C90606D50168C36B0E
:102AC0008A6822F480521A438A6090F82810890696
:102AD00006D50168036C8A6822F400521A438A60A2
:102AE00090F82810490611D50168436C4A6822F411
:102AF00080121A434A60416CB1F5801F06D101680B
:102B0000836C4A6822F4C0021A434A6090F8281085
:102B1000090606D50168C26C486820F400201043FD
:102B200048607047F8B500260446C0F88C60FDF791
:102B300075FD054620686FF07E470068000708D5E0
:102B400000222B464FF400112046009700F0F0F9C8
:102B500060B92068006840070AD500222B464FF470
:102B600080012046009700F0E3F908B10320F8BD8A
:102B70002020C4F88400C4F88800E666002084F8A9
:102B80008060F8BD2DE9F04304468068D84E87B0D8
:102B9000D84B2168D4E90427D4F81CC010430A6834
:102BA000002547EA0C073843324002430A60206898
:102BB000E268416821F44051114341602268A169F3
:102BC0009A4201D0206A01439768DFF82CC3CB4EAC
:102BD000CB4807EA0C070F4397602168676ACA6A07
:102BE00022F00F023A43CA622268B2420ED1006854
:102BF00000F03800182873D047DCB8B3082879D023
:102C000010286FD178E028287ED17BE0BD498A4228
:102C100009D1006800F00700062875D2DFE800F04F
:102C2000546A6C6E7072B8498A4209D1006800F02B
:102C30000700062868D2DFE800F0475D5F61636542
:102C4000B2498A4209D1006800F0070006285BD229
:102C5000DFE800F03A5052545658AD498A420BD141
:102C6000006800F0070006284ED200E010E0DFE820
:102C700000F02B4143454749A6498A420AD10068E2
:102C800000F03800182839D0B7DD2028BBD13CE04F
:102C900001203AE0A0498A4209D1006800F007000B
:102CA000062831D2DFE800F01026282A2C2E9B4976
:102CB0008A420BD1006800F00700062824D2DFE822
:102CC00000F003191B1D1F2100201EE09A421BD19A
:102CD0008B48001D006800F00700062814D202E0AF
:102CE0000CE007E010E0DFE800F0030507090B0D3A
:102CF00002200AE0042008E0082006E0102004E09A
:102D0000202002E0402000E080208549DFF8148286
:102D10009A42854A4FF400434FEA21174FF00006CC
:102D20004ED110281AD006DC022809D004280BD076
:102D300008287CD10DE020283ED0402877D13DE006
:102D4000FDF740FD014610E06846FDF74DFD019995
:102D50000BE003A8FDF7EAFD049906E01068800681
:102D600005D51068C0F3C100C140002970D0606A69
:102D7000676838F8102007EB4703B1FBF2F0834295
:102D800055D8B0EB073F52D8002308461946FDF747
:102D90009FFA02467808130E120243EA0121101826
:102DA0003A4671410023FDF793FA604AA0F540715D
:102DB00091423CD821688FE03946D8E71946D6E7DA
:102DC000D4F81CC04FF6EF799C4546D1082819D09D
:102DD00005DC58B101280CD0042875D10DE010286D
:102DE00015D0202835D040286ED134E0FEF7FAFB0C
:102DF00001E0FEF709FC014610E06846FDF7F4FC2F
:102E000001990BE003A8FDF791FD049906E0106815
:102E1000800604D51068C0F3C100C140C1B1636A27
:102E2000606838F81330B1FBF3F1490000E04BE083
:102E300001EB5001B1FBF0F0A0F11001494543D87E
:102E40004FF6F0732168C0F342021840104343E08C
:102E500043E03946E3E71946E1E7082819D005DCE5
:102E600058B101280CD004282ED10DE0102815D01F
:102E700020282BD0402827D12AE0FEF7B3FB01E021
:102E8000FEF7C2FB014610E06846FDF7ADFC019974
:102E90000BE003A8FDF74AFD049906E010688006E0
:102EA00004D51068C0F3C100C140B1B1636A606865
:102EB00038F81330B1FBF3F101EB5001B1FBF0F046
:102EC000A0F11001494505D9012506E03946EDE795
:102ED0001946EBE7216880B2C8600120A4F86A00B7
:102EE000A4F8680028462667666707B0BDE8F08347
:102EF000F369FFCF000C0058FFF4FF1100100140F0
:102F0000544402580044004000480040004C004037
:102F1000005000400014014000780040007C004058
:102F20000090D0039C31000800440258FFFC0F00C1
:102F30002DE9F0479A4617460E460446089D4FF085
:102F400000094FF020084CE0681C4AD0FDF766FBF2
:102F5000A0EB0A00A8422AD84DB3206801684907AF
:102F60003FD5C069C04300053BD421684FF40060E1
:102F70000862216851E8000F20F4D07041E8000297
:102F8000002AF6D12068083050E8001F21F0010126
:102F900040E80012002AF5D1C4F8848084F88090BB
:102FA000C4F88880C4F88C800320BDE8F0872068CE
:102FB00050E8001F21F4D07140E80012002AF6D139
:102FC0002068083050E8001F21F0010140E800129D
:102FD000002AF5D1C4F8848084F88090C4F88880F1
:102FE000E2E72068C06936EA000004D00020B84259
:102FF000AAD00020D9E70120F9E7FEE70FB4054B7E
:1030000010B503A9044A029800F028F810BC5DF836
:1030100014FB0000353100081400002409070028C3
:103020004FEA116104DB00F1E02080F800147047E2
:1030300000F00F0000F1E02080F8141D704702E05E
:1030400008C8121F08C1002AFAD170477047002033
:1030500001E001C1121F002AFBD170472DE9F84F92
:103060009946924688460546002706E025280AD05C
:1030700051464A4690476D1C7F1C28780028F5D1A0
:103080003846BDE8F88F002315F8011F18462E2991
:1030900015D115F8011F04232A290DD06FF02F0236
:1030A0002978A1F13004092C09D800EB800002EB4B
:1030B000400008446D1CF3E758F8040B6D1C2A7897
:1030C000002ADDD0632A07D0732A0FD0104651465C
:1030D0004A4690477F1C2AE018F8042B8DF8002000
:1030E00000218DF801106E46012103E058F8046BB1
:1030F0004FF0FF315A074FF0000401D409E0641C7F
:1031000084420BDA8C42FADB325D002AF7D105E00B
:10311000641C8C42FCDB305D0028F9D1274404E0BC
:1031200016F8010B51464A469047641EF8D26D1CB2
:10313000A3E7000013B50448052301226946FFF701
:10314000EDF800981CBD000018000024FDF774FA8B
:10315000FFF700FBFFF742F9FFF766F9FFF798F971
:1031600005A107A0FFF74AFF6420FDF729F90648EB
:10317000FEF766FEFEE7000068656C6C6F000000FD
:1031800025730D0A00000000A800002400000000C4
:1031900001020304010203040607080901000200FA
:1031A0000400060008000A000C0010002000400087
:1031B000800000010101010307010000080402046E
:1031C00008010101E431000800000024180000009B
:1031D0003E300008FC31000818000024E004000024
:1031E0004E3000080090D0030090D0030100000092
:0C31F000100000000000000000000000C3
:040000050800029954
:00000001FF
